{
  "contractName": "BountyMarket",
  "abi": [
    {
      "constant": true,
      "inputs": [
        {
          "name": "",
          "type": "address"
        },
        {
          "name": "",
          "type": "uint256"
        }
      ],
      "name": "ownerToBounty",
      "outputs": [
        {
          "name": "",
          "type": "uint256"
        }
      ],
      "payable": false,
      "stateMutability": "view",
      "type": "function",
      "signature": "0x1eab6fd3"
    },
    {
      "constant": true,
      "inputs": [
        {
          "name": "",
          "type": "uint256"
        }
      ],
      "name": "bountyToOwner",
      "outputs": [
        {
          "name": "",
          "type": "address"
        }
      ],
      "payable": false,
      "stateMutability": "view",
      "type": "function",
      "signature": "0x575d4bfe"
    },
    {
      "constant": true,
      "inputs": [
        {
          "name": "",
          "type": "uint256"
        },
        {
          "name": "",
          "type": "uint256"
        }
      ],
      "name": "bountyIdToSubmissionIds",
      "outputs": [
        {
          "name": "",
          "type": "uint256"
        }
      ],
      "payable": false,
      "stateMutability": "view",
      "type": "function",
      "signature": "0x67a07bf5"
    },
    {
      "constant": true,
      "inputs": [
        {
          "name": "",
          "type": "uint256"
        }
      ],
      "name": "submissions",
      "outputs": [
        {
          "name": "accepted",
          "type": "bool"
        },
        {
          "name": "text",
          "type": "string"
        },
        {
          "name": "submittorAddress",
          "type": "address"
        }
      ],
      "payable": false,
      "stateMutability": "view",
      "type": "function",
      "signature": "0xad73349e"
    },
    {
      "constant": true,
      "inputs": [
        {
          "name": "",
          "type": "uint256"
        }
      ],
      "name": "bounties",
      "outputs": [
        {
          "name": "title",
          "type": "string"
        },
        {
          "name": "description",
          "type": "string"
        },
        {
          "name": "price",
          "type": "uint256"
        },
        {
          "name": "ownerAddress",
          "type": "address"
        },
        {
          "name": "accepted",
          "type": "bool"
        }
      ],
      "payable": false,
      "stateMutability": "view",
      "type": "function",
      "signature": "0xdc2f8744"
    },
    {
      "anonymous": false,
      "inputs": [
        {
          "indexed": false,
          "name": "_id",
          "type": "uint256"
        },
        {
          "indexed": false,
          "name": "_title",
          "type": "string"
        },
        {
          "indexed": false,
          "name": "_description",
          "type": "string"
        },
        {
          "indexed": false,
          "name": "_price",
          "type": "uint256"
        },
        {
          "indexed": false,
          "name": "_ownerAddress",
          "type": "address"
        },
        {
          "indexed": false,
          "name": "_accepted",
          "type": "bool"
        }
      ],
      "name": "BountyCreated",
      "type": "event",
      "signature": "0x8b0f9377bed348b575c2a647e459c30cb87b1765a22469c87031bbd3a3321634"
    },
    {
      "anonymous": false,
      "inputs": [
        {
          "indexed": false,
          "name": "_bountyId",
          "type": "uint256"
        },
        {
          "indexed": false,
          "name": "submittorAddress",
          "type": "address"
        },
        {
          "indexed": false,
          "name": "submissionId",
          "type": "uint256"
        },
        {
          "indexed": false,
          "name": "_text",
          "type": "string"
        }
      ],
      "name": "SubmissionCreated",
      "type": "event",
      "signature": "0xc993ee94c23e25028e713602da05e5245e8e0ef61dce41c8550b77304b131166"
    },
    {
      "constant": false,
      "inputs": [
        {
          "name": "_title",
          "type": "string"
        },
        {
          "name": "_description",
          "type": "string"
        },
        {
          "name": "_price",
          "type": "uint256"
        },
        {
          "name": "_accepted",
          "type": "bool"
        }
      ],
      "name": "createBounty",
      "outputs": [],
      "payable": false,
      "stateMutability": "nonpayable",
      "type": "function",
      "signature": "0x807ee746"
    },
    {
      "constant": false,
      "inputs": [
        {
          "name": "_bountyId",
          "type": "uint256"
        },
        {
          "name": "_text",
          "type": "string"
        }
      ],
      "name": "createBountySubmission",
      "outputs": [],
      "payable": false,
      "stateMutability": "nonpayable",
      "type": "function",
      "signature": "0xa739d4e8"
    },
    {
      "constant": true,
      "inputs": [
        {
          "name": "_bountyId",
          "type": "uint256"
        }
      ],
      "name": "retrieveSubmissionsIds",
      "outputs": [
        {
          "name": "_submissionIds",
          "type": "uint256[]"
        }
      ],
      "payable": false,
      "stateMutability": "view",
      "type": "function",
      "signature": "0x7a0cfe24"
    },
    {
      "constant": true,
      "inputs": [
        {
          "name": "_submissionId",
          "type": "uint256"
        }
      ],
      "name": "retrieveSubmissionsTextandAddressFromIds",
      "outputs": [
        {
          "name": "_submissionText",
          "type": "string"
        },
        {
          "name": "_submittorAddress",
          "type": "address"
        }
      ],
      "payable": false,
      "stateMutability": "view",
      "type": "function",
      "signature": "0x4d69316d"
    },
    {
      "constant": true,
      "inputs": [
        {
          "name": "ownerAddress",
          "type": "address"
        }
      ],
      "name": "getBountyByOwnerAddress",
      "outputs": [
        {
          "name": "",
          "type": "uint256[]"
        }
      ],
      "payable": false,
      "stateMutability": "view",
      "type": "function",
      "signature": "0xac3d278b"
    },
    {
      "constant": true,
      "inputs": [
        {
          "name": "id",
          "type": "uint256"
        }
      ],
      "name": "getBountyById",
      "outputs": [
        {
          "name": "title",
          "type": "string"
        },
        {
          "name": "description",
          "type": "string"
        },
        {
          "name": "price",
          "type": "uint256"
        },
        {
          "name": "ownerAddress",
          "type": "address"
        },
        {
          "name": "accepted",
          "type": "bool"
        }
      ],
      "payable": false,
      "stateMutability": "view",
      "type": "function",
      "signature": "0xb2aced4f"
    }
  ],
  "bytecode": "0x608060405234801561001057600080fd5b50611795806100206000396000f3fe6080604052600436106100af576000357c0100000000000000000000000000000000000000000000000000000000900463ffffffff1680631eab6fd3146100b45780634d69316d14610123578063575d4bfe1461020a57806367a07bf5146102855780637a0cfe24146102de578063807ee7461461036e578063a739d4e8146104e3578063ac3d278b146105b5578063ad73349e1461065b578063b2aced4f1461074d578063dc2f8744146108b2575b600080fd5b3480156100c057600080fd5b5061010d600480360360408110156100d757600080fd5b81019080803573ffffffffffffffffffffffffffffffffffffffff16906020019092919080359060200190929190505050610a17565b6040518082815260200191505060405180910390f35b34801561012f57600080fd5b5061015c6004803603602081101561014657600080fd5b8101908080359060200190929190505050610a47565b60405180806020018373ffffffffffffffffffffffffffffffffffffffff1673ffffffffffffffffffffffffffffffffffffffff168152602001828103825284818151815260200191508051906020019080838360005b838110156101ce5780820151818401526020810190506101b3565b50505050905090810190601f1680156101fb5780820380516001836020036101000a031916815260200191505b50935050505060405180910390f35b34801561021657600080fd5b506102436004803603602081101561022d57600080fd5b8101908080359060200190929190505050610b51565b604051808273ffffffffffffffffffffffffffffffffffffffff1673ffffffffffffffffffffffffffffffffffffffff16815260200191505060405180910390f35b34801561029157600080fd5b506102c8600480360360408110156102a857600080fd5b810190808035906020019092919080359060200190929190505050610b84565b6040518082815260200191505060405180910390f35b3480156102ea57600080fd5b506103176004803603602081101561030157600080fd5b8101908080359060200190929190505050610bb4565b6040518080602001828103825283818151815260200191508051906020019060200280838360005b8381101561035a57808201518184015260208101905061033f565b505050509050019250505060405180910390f35b34801561037a57600080fd5b506104e16004803603608081101561039157600080fd5b81019080803590602001906401000000008111156103ae57600080fd5b8201836020820111156103c057600080fd5b803590602001918460018302840111640100000000831117156103e257600080fd5b91908080601f016020809104026020016040519081016040528093929190818152602001838380828437600081840152601f19601f8201169050808301925050505050505091929192908035906020019064010000000081111561044557600080fd5b82018360208201111561045757600080fd5b8035906020019184600183028401116401000000008311171561047957600080fd5b91908080601f016020809104026020016040519081016040528093929190818152602001838380828437600081840152601f19601f82011690508083019250505050505050919291929080359060200190929190803515159060200190929190505050610c1f565b005b3480156104ef57600080fd5b506105b36004803603604081101561050657600080fd5b81019080803590602001909291908035906020019064010000000081111561052d57600080fd5b82018360208201111561053f57600080fd5b8035906020019184600183028401116401000000008311171561056157600080fd5b91908080601f016020809104026020016040519081016040528093929190818152602001838380828437600081840152601f19601f820116905080830192505050505050509192919290505050610f5b565b005b3480156105c157600080fd5b50610604600480360360208110156105d857600080fd5b81019080803573ffffffffffffffffffffffffffffffffffffffff16906020019092919050505061116b565b6040518080602001828103825283818151815260200191508051906020019060200280838360005b8381101561064757808201518184015260208101905061062c565b505050509050019250505060405180910390f35b34801561066757600080fd5b506106946004803603602081101561067e57600080fd5b8101908080359060200190929190505050611202565b6040518084151515158152602001806020018373ffffffffffffffffffffffffffffffffffffffff1673ffffffffffffffffffffffffffffffffffffffff168152602001828103825284818151815260200191508051906020019080838360005b838110156107105780820151818401526020810190506106f5565b50505050905090810190601f16801561073d5780820380516001836020036101000a031916815260200191505b5094505050505060405180910390f35b34801561075957600080fd5b506107866004803603602081101561077057600080fd5b8101908080359060200190929190505050611300565b6040518080602001806020018681526020018573ffffffffffffffffffffffffffffffffffffffff1673ffffffffffffffffffffffffffffffffffffffff16815260200184151515158152602001838103835288818151815260200191508051906020019080838360005b8381101561080c5780820151818401526020810190506107f1565b50505050905090810190601f1680156108395780820380516001836020036101000a031916815260200191505b50838103825287818151815260200191508051906020019080838360005b83811015610872578082015181840152602081019050610857565b50505050905090810190601f16801561089f5780820380516001836020036101000a031916815260200191505b5097505050505050505060405180910390f35b3480156108be57600080fd5b506108eb600480360360208110156108d557600080fd5b8101908080359060200190929190505050611522565b6040518080602001806020018681526020018573ffffffffffffffffffffffffffffffffffffffff1673ffffffffffffffffffffffffffffffffffffffff16815260200184151515158152602001838103835288818151815260200191508051906020019080838360005b83811015610971578082015181840152602081019050610956565b50505050905090810190601f16801561099e5780820380516001836020036101000a031916815260200191505b50838103825287818151815260200191508051906020019080838360005b838110156109d75780820151818401526020810190506109bc565b50505050905090810190601f168015610a045780820380516001836020036101000a031916815260200191505b5097505050505050505060405180910390f35b600360205281600052604060002081815481101515610a3257fe5b90600052602060002001600091509150505481565b60606000600183815481101515610a5a57fe5b9060005260206000209060030201600101600184815481101515610a7a57fe5b906000526020600020906003020160020160009054906101000a900473ffffffffffffffffffffffffffffffffffffffff16818054600181600116156101000203166002900480601f016020809104026020016040519081016040528092919081815260200182805460018160011615610100020316600290048015610b415780601f10610b1657610100808354040283529160200191610b41565b820191906000526020600020905b815481529060010190602001808311610b2457829003601f168201915b5050505050915091509150915091565b60026020528060005260406000206000915054906101000a900473ffffffffffffffffffffffffffffffffffffffff1681565b600460205281600052604060002081815481101515610b9f57fe5b90600052602060002001600091509150505481565b606060046000838152602001908152602001600020805480602002602001604051908101604052809291908181526020018280548015610c1357602002820191906000526020600020905b815481526020019060010190808311610bff575b50505050509050919050565b60006001600060a0604051908101604052808881526020018781526020018681526020013373ffffffffffffffffffffffffffffffffffffffff168152602001851515815250908060018154018082558091505090600182039060005260206000209060040201600090919290919091506000820151816000019080519060200190610cac9291906116c4565b506020820151816001019080519060200190610cc99291906116c4565b506040820151816002015560608201518160030160006101000a81548173ffffffffffffffffffffffffffffffffffffffff021916908373ffffffffffffffffffffffffffffffffffffffff16021790555060808201518160030160146101000a81548160ff0219169083151502179055505050039050336002600083815260200190815260200160002060006101000a81548173ffffffffffffffffffffffffffffffffffffffff021916908373ffffffffffffffffffffffffffffffffffffffff160217905550600360003373ffffffffffffffffffffffffffffffffffffffff1673ffffffffffffffffffffffffffffffffffffffff1681526020019081526020016000208190806001815401808255809150509060018203906000526020600020016000909192909190915055507f8b0f9377bed348b575c2a647e459c30cb87b1765a22469c87031bbd3a33216348186868633876040518087815260200180602001806020018681526020018573ffffffffffffffffffffffffffffffffffffffff1673ffffffffffffffffffffffffffffffffffffffff16815260200184151515158152602001838103835288818151815260200191508051906020019080838360005b83811015610eae578082015181840152602081019050610e93565b50505050905090810190601f168015610edb5780820380516001836020036101000a031916815260200191505b50838103825287818151815260200191508051906020019080838360005b83811015610f14578082015181840152602081019050610ef9565b50505050905090810190601f168015610f415780820380516001836020036101000a031916815260200191505b509850505050505050505060405180910390a15050505050565b60006001806060604051908101604052806000151581526020018581526020013373ffffffffffffffffffffffffffffffffffffffff168152509080600181540180825580915050906001820390600052602060002090600302016000909192909190915060008201518160000160006101000a81548160ff0219169083151502179055506020820151816001019080519060200190610ffc9291906116c4565b5060408201518160020160006101000a81548173ffffffffffffffffffffffffffffffffffffffff021916908373ffffffffffffffffffffffffffffffffffffffff1602179055505050039050600460008481526020019081526020016000208190806001815401808255809150509060018203906000526020600020016000909192909190915055507fc993ee94c23e25028e713602da05e5245e8e0ef61dce41c8550b77304b13116683338385604051808581526020018473ffffffffffffffffffffffffffffffffffffffff1673ffffffffffffffffffffffffffffffffffffffff16815260200183815260200180602001828103825283818151815260200191508051906020019080838360005b8381101561112957808201518184015260208101905061110e565b50505050905090810190601f1680156111565780820380516001836020036101000a031916815260200191505b509550505050505060405180910390a1505050565b6060600360008373ffffffffffffffffffffffffffffffffffffffff1673ffffffffffffffffffffffffffffffffffffffff1681526020019081526020016000208054806020026020016040519081016040528092919081815260200182805480156111f657602002820191906000526020600020905b8154815260200190600101908083116111e2575b50505050509050919050565b60018181548110151561121157fe5b90600052602060002090600302016000915090508060000160009054906101000a900460ff1690806001018054600181600116156101000203166002900480601f0160208091040260200160405190810160405280929190818152602001828054600181600116156101000203166002900480156112d05780601f106112a5576101008083540402835291602001916112d0565b820191906000526020600020905b8154815290600101906020018083116112b357829003601f168201915b5050505050908060020160009054906101000a900473ffffffffffffffffffffffffffffffffffffffff16905083565b6060806000806000808681548110151561131657fe5b906000526020600020906004020160000160008781548110151561133657fe5b906000526020600020906004020160010160008881548110151561135657fe5b90600052602060002090600402016002015460008981548110151561137757fe5b906000526020600020906004020160030160009054906101000a900473ffffffffffffffffffffffffffffffffffffffff1660008a8154811015156113b857fe5b906000526020600020906004020160030160149054906101000a900460ff16848054600181600116156101000203166002900480601f01602080910402602001604051908101604052809291908181526020018280546001816001161561010002031660029004801561146c5780601f106114415761010080835404028352916020019161146c565b820191906000526020600020905b81548152906001019060200180831161144f57829003601f168201915b50505050509450838054600181600116156101000203166002900480601f0160208091040260200160405190810160405280929190818152602001828054600181600116156101000203166002900480156115085780601f106114dd57610100808354040283529160200191611508565b820191906000526020600020905b8154815290600101906020018083116114eb57829003601f168201915b505050505093509450945094509450945091939590929450565b60008181548110151561153157fe5b9060005260206000209060040201600091509050806000018054600181600116156101000203166002900480601f0160208091040260200160405190810160405280929190818152602001828054600181600116156101000203166002900480156115dd5780601f106115b2576101008083540402835291602001916115dd565b820191906000526020600020905b8154815290600101906020018083116115c057829003601f168201915b505050505090806001018054600181600116156101000203166002900480601f01602080910402602001604051908101604052809291908181526020018280546001816001161561010002031660029004801561167b5780601f106116505761010080835404028352916020019161167b565b820191906000526020600020905b81548152906001019060200180831161165e57829003601f168201915b5050505050908060020154908060030160009054906101000a900473ffffffffffffffffffffffffffffffffffffffff16908060030160149054906101000a900460ff16905085565b828054600181600116156101000203166002900490600052602060002090601f016020900481019282601f1061170557805160ff1916838001178555611733565b82800160010185558215611733579182015b82811115611732578251825591602001919060010190611717565b5b5090506117409190611744565b5090565b61176691905b8082111561176257600081600090555060010161174a565b5090565b9056fea165627a7a723058202d03fd92cf0e070f7e7535fee67cbe312f83aa8506af75d99b18c62decf5c3d10029",
  "source": "pragma solidity ^0.5.0;\n\ncontract BountyMarket {\n\n  event BountyCreated(uint _id, string _title, string _description, uint _price, address _ownerAddress, bool _accepted);\n\n  event SubmissionCreated(uint _bountyId, address submittorAddress, uint submissionId, string _text);\n\n  struct Bounty {\n    string title;\n    string description;\n    uint price;\n    address ownerAddress;\n    bool accepted;\n  }\n\n  struct Submission {\n    bool accepted;\n    string text;\n    address submittorAddress;\n  }\n\n  Bounty[] public bounties;\n  Submission[] public submissions;\n  mapping (uint => address) public bountyToOwner;\n  mapping (address => uint[]) public ownerToBounty;\n  mapping (uint => uint[]) public bountyIdToSubmissionIds;\n\n  function createBounty(string memory _title, string memory _description, uint _price, bool _accepted) public {\n    uint id = bounties.push(Bounty(_title, _description, _price, msg.sender, _accepted)) -1;\n    bountyToOwner[id] = msg.sender;\n    ownerToBounty[msg.sender].push(id);\n    emit BountyCreated(id, _title, _description, _price, msg.sender, _accepted);\n  }\n\n  function createBountySubmission(uint _bountyId, string memory _text) public {\n    uint submissionId = submissions.push(Submission(false, _text, msg.sender)) -1;\n    bountyIdToSubmissionIds[_bountyId].push(submissionId);\n    emit SubmissionCreated(_bountyId, msg.sender, submissionId, _text);\n  }\n\n  function retrieveSubmissionsIds(uint _bountyId) external view returns (uint[] memory _submissionIds) {\n    return bountyIdToSubmissionIds[_bountyId];\n  }\n\n  function retrieveSubmissionsTextandAddressFromIds(uint _submissionId) external view returns (string memory _submissionText, address _submittorAddress) {\n    return (submissions[_submissionId].text, submissions[_submissionId].submittorAddress);\n  }\n\n  function getBountyByOwnerAddress(address ownerAddress) external view returns(uint[] memory) {\n    return ownerToBounty[ownerAddress];\n  }\n\n  function getBountyById(uint id) external view returns(string memory title, string memory description, uint price, address ownerAddress, bool accepted) {\n    return (bounties[id].title, bounties[id].description, bounties[id].price, bounties[id].ownerAddress, bounties[id].accepted);\n  }\n\n}\n",
  "sourcePath": "/Users/JessicaNgo/Desktop/DevAcademy/reactBounty/contracts/BountyMarket.sol",
  "compiler": {
    "name": "solc",
    "version": "0.5.0+commit.1d4f565a.Emscripten.clang"
  },
  "schemaVersion": "3.0.1",
  "updatedAt": "2019-01-25T01:47:40.380Z",
  "devdoc": {
    "methods": {}
  },
  "userdoc": {
    "methods": {}
  }
}