{
  "contractName": "BountyMarket",
  "abi": [
    {
      "constant": true,
      "inputs": [
        {
          "name": "",
          "type": "address"
        },
        {
          "name": "",
          "type": "uint256"
        }
      ],
      "name": "ownerToBounty",
      "outputs": [
        {
          "name": "",
          "type": "uint256"
        }
      ],
      "payable": false,
      "stateMutability": "view",
      "type": "function",
      "signature": "0x1eab6fd3"
    },
    {
      "constant": true,
      "inputs": [
        {
          "name": "",
          "type": "uint256"
        }
      ],
      "name": "bountyToOwner",
      "outputs": [
        {
          "name": "",
          "type": "address"
        }
      ],
      "payable": false,
      "stateMutability": "view",
      "type": "function",
      "signature": "0x575d4bfe"
    },
    {
      "constant": true,
      "inputs": [
        {
          "name": "",
          "type": "uint256"
        }
      ],
      "name": "bounties",
      "outputs": [
        {
          "name": "title",
          "type": "string"
        },
        {
          "name": "description",
          "type": "string"
        },
        {
          "name": "price",
          "type": "uint256"
        },
        {
          "name": "ownerAddress",
          "type": "address"
        },
        {
          "name": "accepted",
          "type": "bool"
        }
      ],
      "payable": false,
      "stateMutability": "view",
      "type": "function",
      "signature": "0xdc2f8744"
    },
    {
      "anonymous": false,
      "inputs": [
        {
          "indexed": false,
          "name": "_id",
          "type": "uint256"
        },
        {
          "indexed": false,
          "name": "_title",
          "type": "string"
        },
        {
          "indexed": false,
          "name": "_description",
          "type": "string"
        },
        {
          "indexed": false,
          "name": "_price",
          "type": "uint256"
        },
        {
          "indexed": false,
          "name": "_ownerAddress",
          "type": "address"
        },
        {
          "indexed": false,
          "name": "_accepted",
          "type": "bool"
        }
      ],
      "name": "BountyCreated",
      "type": "event",
      "signature": "0x8b0f9377bed348b575c2a647e459c30cb87b1765a22469c87031bbd3a3321634"
    },
    {
      "constant": false,
      "inputs": [
        {
          "name": "_title",
          "type": "string"
        },
        {
          "name": "_description",
          "type": "string"
        },
        {
          "name": "_price",
          "type": "uint256"
        },
        {
          "name": "_accepted",
          "type": "bool"
        }
      ],
      "name": "createBounty",
      "outputs": [],
      "payable": false,
      "stateMutability": "nonpayable",
      "type": "function",
      "signature": "0x807ee746"
    },
    {
      "constant": true,
      "inputs": [
        {
          "name": "ownerAddress",
          "type": "address"
        }
      ],
      "name": "getBountyByOwnerAddress",
      "outputs": [
        {
          "name": "",
          "type": "uint256[]"
        }
      ],
      "payable": false,
      "stateMutability": "view",
      "type": "function",
      "signature": "0xac3d278b"
    },
    {
      "constant": true,
      "inputs": [
        {
          "name": "id",
          "type": "uint256"
        }
      ],
      "name": "getBountyById",
      "outputs": [
        {
          "name": "title",
          "type": "string"
        },
        {
          "name": "description",
          "type": "string"
        },
        {
          "name": "price",
          "type": "uint256"
        },
        {
          "name": "ownerAddress",
          "type": "address"
        },
        {
          "name": "accepted",
          "type": "bool"
        }
      ],
      "payable": false,
      "stateMutability": "view",
      "type": "function",
      "signature": "0xb2aced4f"
    }
  ],
  "bytecode": "0x608060405234801561001057600080fd5b50610f17806100206000396000f3fe608060405260043610610078576000357c0100000000000000000000000000000000000000000000000000000000900463ffffffff1680631eab6fd31461007d578063575d4bfe146100ec578063807ee74614610167578063ac3d278b146102dc578063b2aced4f14610382578063dc2f8744146104e7575b600080fd5b34801561008957600080fd5b506100d6600480360360408110156100a057600080fd5b81019080803573ffffffffffffffffffffffffffffffffffffffff1690602001909291908035906020019092919050505061064c565b6040518082815260200191505060405180910390f35b3480156100f857600080fd5b506101256004803603602081101561010f57600080fd5b810190808035906020019092919050505061067c565b604051808273ffffffffffffffffffffffffffffffffffffffff1673ffffffffffffffffffffffffffffffffffffffff16815260200191505060405180910390f35b34801561017357600080fd5b506102da6004803603608081101561018a57600080fd5b81019080803590602001906401000000008111156101a757600080fd5b8201836020820111156101b957600080fd5b803590602001918460018302840111640100000000831117156101db57600080fd5b91908080601f016020809104026020016040519081016040528093929190818152602001838380828437600081840152601f19601f8201169050808301925050505050505091929192908035906020019064010000000081111561023e57600080fd5b82018360208201111561025057600080fd5b8035906020019184600183028401116401000000008311171561027257600080fd5b91908080601f016020809104026020016040519081016040528093929190818152602001838380828437600081840152601f19601f820116905080830192505050505050509192919290803590602001909291908035151590602001909291905050506106af565b005b3480156102e857600080fd5b5061032b600480360360208110156102ff57600080fd5b81019080803573ffffffffffffffffffffffffffffffffffffffff1690602001909291905050506109eb565b6040518080602001828103825283818151815260200191508051906020019060200280838360005b8381101561036e578082015181840152602081019050610353565b505050509050019250505060405180910390f35b34801561038e57600080fd5b506103bb600480360360208110156103a557600080fd5b8101908080359060200190929190505050610a82565b6040518080602001806020018681526020018573ffffffffffffffffffffffffffffffffffffffff1673ffffffffffffffffffffffffffffffffffffffff16815260200184151515158152602001838103835288818151815260200191508051906020019080838360005b83811015610441578082015181840152602081019050610426565b50505050905090810190601f16801561046e5780820380516001836020036101000a031916815260200191505b50838103825287818151815260200191508051906020019080838360005b838110156104a757808201518184015260208101905061048c565b50505050905090810190601f1680156104d45780820380516001836020036101000a031916815260200191505b5097505050505050505060405180910390f35b3480156104f357600080fd5b506105206004803603602081101561050a57600080fd5b8101908080359060200190929190505050610ca4565b6040518080602001806020018681526020018573ffffffffffffffffffffffffffffffffffffffff1673ffffffffffffffffffffffffffffffffffffffff16815260200184151515158152602001838103835288818151815260200191508051906020019080838360005b838110156105a657808201518184015260208101905061058b565b50505050905090810190601f1680156105d35780820380516001836020036101000a031916815260200191505b50838103825287818151815260200191508051906020019080838360005b8381101561060c5780820151818401526020810190506105f1565b50505050905090810190601f1680156106395780820380516001836020036101000a031916815260200191505b5097505050505050505060405180910390f35b60026020528160005260406000208181548110151561066757fe5b90600052602060002001600091509150505481565b60016020528060005260406000206000915054906101000a900473ffffffffffffffffffffffffffffffffffffffff1681565b60006001600060a0604051908101604052808881526020018781526020018681526020013373ffffffffffffffffffffffffffffffffffffffff16815260200185151581525090806001815401808255809150509060018203906000526020600020906004020160009091929091909150600082015181600001908051906020019061073c929190610e46565b506020820151816001019080519060200190610759929190610e46565b506040820151816002015560608201518160030160006101000a81548173ffffffffffffffffffffffffffffffffffffffff021916908373ffffffffffffffffffffffffffffffffffffffff16021790555060808201518160030160146101000a81548160ff0219169083151502179055505050039050336001600083815260200190815260200160002060006101000a81548173ffffffffffffffffffffffffffffffffffffffff021916908373ffffffffffffffffffffffffffffffffffffffff160217905550600260003373ffffffffffffffffffffffffffffffffffffffff1673ffffffffffffffffffffffffffffffffffffffff1681526020019081526020016000208190806001815401808255809150509060018203906000526020600020016000909192909190915055507f8b0f9377bed348b575c2a647e459c30cb87b1765a22469c87031bbd3a33216348186868633876040518087815260200180602001806020018681526020018573ffffffffffffffffffffffffffffffffffffffff1673ffffffffffffffffffffffffffffffffffffffff16815260200184151515158152602001838103835288818151815260200191508051906020019080838360005b8381101561093e578082015181840152602081019050610923565b50505050905090810190601f16801561096b5780820380516001836020036101000a031916815260200191505b50838103825287818151815260200191508051906020019080838360005b838110156109a4578082015181840152602081019050610989565b50505050905090810190601f1680156109d15780820380516001836020036101000a031916815260200191505b509850505050505050505060405180910390a15050505050565b6060600260008373ffffffffffffffffffffffffffffffffffffffff1673ffffffffffffffffffffffffffffffffffffffff168152602001908152602001600020805480602002602001604051908101604052809291908181526020018280548015610a7657602002820191906000526020600020905b815481526020019060010190808311610a62575b50505050509050919050565b60608060008060008086815481101515610a9857fe5b9060005260206000209060040201600001600087815481101515610ab857fe5b9060005260206000209060040201600101600088815481101515610ad857fe5b906000526020600020906004020160020154600089815481101515610af957fe5b906000526020600020906004020160030160009054906101000a900473ffffffffffffffffffffffffffffffffffffffff1660008a815481101515610b3a57fe5b906000526020600020906004020160030160149054906101000a900460ff16848054600181600116156101000203166002900480601f016020809104026020016040519081016040528092919081815260200182805460018160011615610100020316600290048015610bee5780601f10610bc357610100808354040283529160200191610bee565b820191906000526020600020905b815481529060010190602001808311610bd157829003601f168201915b50505050509450838054600181600116156101000203166002900480601f016020809104026020016040519081016040528092919081815260200182805460018160011615610100020316600290048015610c8a5780601f10610c5f57610100808354040283529160200191610c8a565b820191906000526020600020905b815481529060010190602001808311610c6d57829003601f168201915b505050505093509450945094509450945091939590929450565b600081815481101515610cb357fe5b9060005260206000209060040201600091509050806000018054600181600116156101000203166002900480601f016020809104026020016040519081016040528092919081815260200182805460018160011615610100020316600290048015610d5f5780601f10610d3457610100808354040283529160200191610d5f565b820191906000526020600020905b815481529060010190602001808311610d4257829003601f168201915b505050505090806001018054600181600116156101000203166002900480601f016020809104026020016040519081016040528092919081815260200182805460018160011615610100020316600290048015610dfd5780601f10610dd257610100808354040283529160200191610dfd565b820191906000526020600020905b815481529060010190602001808311610de057829003601f168201915b5050505050908060020154908060030160009054906101000a900473ffffffffffffffffffffffffffffffffffffffff16908060030160149054906101000a900460ff16905085565b828054600181600116156101000203166002900490600052602060002090601f016020900481019282601f10610e8757805160ff1916838001178555610eb5565b82800160010185558215610eb5579182015b82811115610eb4578251825591602001919060010190610e99565b5b509050610ec29190610ec6565b5090565b610ee891905b80821115610ee4576000816000905550600101610ecc565b5090565b9056fea165627a7a72305820e93d729458956b30ebf40d8122e84b1babc1069d14c0a11e678e2b15e04ea5ac0029",
  "source": "pragma solidity ^0.5.0;\n\ncontract BountyMarket {\n\n  event BountyCreated(uint _id, string _title, string _description, uint _price, address _ownerAddress, bool _accepted);\n\n  struct Bounty {\n    string title;\n    string description;\n    uint price;\n    address ownerAddress;\n    bool accepted;\n  }\n\n  Bounty[] public bounties;\n  mapping (uint => address) public bountyToOwner;\n  mapping (address => uint[]) public ownerToBounty;\n\n  function createBounty(string memory _title, string memory _description, uint _price, bool _accepted) public {\n    uint id = bounties.push(Bounty(_title, _description, _price, msg.sender, _accepted)) -1;\n    bountyToOwner[id] = msg.sender;\n    ownerToBounty[msg.sender].push(id);\n    emit BountyCreated(id, _title, _description, _price, msg.sender, _accepted);\n  }\n\n  function getBountyByOwnerAddress(address ownerAddress) external view returns(uint[] memory) {\n    return ownerToBounty[ownerAddress];\n  }\n\n  function getBountyById(uint id) external view returns(string memory title, string memory description, uint price, address ownerAddress, bool accepted) {\n    return (bounties[id].title, bounties[id].description, bounties[id].price, bounties[id].ownerAddress, bounties[id].accepted);\n  }\n}\n",
  "sourcePath": "/Users/JessicaNgo/Desktop/DevAcademy/reactBounty/contracts/BountyMarket.sol",
  "compiler": {
    "name": "solc",
    "version": "0.5.0+commit.1d4f565a.Emscripten.clang"
  },
  "schemaVersion": "3.0.1",
  "updatedAt": "2019-01-23T11:36:55.304Z",
  "devdoc": {
    "methods": {}
  },
  "userdoc": {
    "methods": {}
  }
}