{
  "contractName": "BountyMarket",
  "abi": [
    {
      "constant": true,
      "inputs": [
        {
          "name": "",
          "type": "address"
        },
        {
          "name": "",
          "type": "uint256"
        }
      ],
      "name": "ownerToBounty",
      "outputs": [
        {
          "name": "",
          "type": "uint256"
        }
      ],
      "payable": false,
      "stateMutability": "view",
      "type": "function",
      "signature": "0x1eab6fd3"
    },
    {
      "constant": true,
      "inputs": [
        {
          "name": "",
          "type": "uint256"
        }
      ],
      "name": "bountyToOwner",
      "outputs": [
        {
          "name": "",
          "type": "address"
        }
      ],
      "payable": false,
      "stateMutability": "view",
      "type": "function",
      "signature": "0x575d4bfe"
    },
    {
      "constant": true,
      "inputs": [
        {
          "name": "",
          "type": "uint256"
        },
        {
          "name": "",
          "type": "uint256"
        }
      ],
      "name": "bountyIdToSubmissionIds",
      "outputs": [
        {
          "name": "",
          "type": "uint256"
        }
      ],
      "payable": false,
      "stateMutability": "view",
      "type": "function",
      "signature": "0x67a07bf5"
    },
    {
      "constant": true,
      "inputs": [
        {
          "name": "",
          "type": "uint256"
        }
      ],
      "name": "submissions",
      "outputs": [
        {
          "name": "accepted",
          "type": "bool"
        },
        {
          "name": "text",
          "type": "string"
        },
        {
          "name": "submittorAddress",
          "type": "address"
        }
      ],
      "payable": false,
      "stateMutability": "view",
      "type": "function",
      "signature": "0xad73349e"
    },
    {
      "constant": true,
      "inputs": [
        {
          "name": "",
          "type": "uint256"
        }
      ],
      "name": "bounties",
      "outputs": [
        {
          "name": "title",
          "type": "string"
        },
        {
          "name": "description",
          "type": "string"
        },
        {
          "name": "price",
          "type": "uint256"
        },
        {
          "name": "ownerAddress",
          "type": "address"
        },
        {
          "name": "accepted",
          "type": "bool"
        }
      ],
      "payable": false,
      "stateMutability": "view",
      "type": "function",
      "signature": "0xdc2f8744"
    },
    {
      "anonymous": false,
      "inputs": [
        {
          "indexed": false,
          "name": "_id",
          "type": "uint256"
        },
        {
          "indexed": false,
          "name": "_title",
          "type": "string"
        },
        {
          "indexed": false,
          "name": "_description",
          "type": "string"
        },
        {
          "indexed": false,
          "name": "_price",
          "type": "uint256"
        },
        {
          "indexed": false,
          "name": "_ownerAddress",
          "type": "address"
        },
        {
          "indexed": false,
          "name": "_accepted",
          "type": "bool"
        }
      ],
      "name": "BountyCreated",
      "type": "event",
      "signature": "0x8b0f9377bed348b575c2a647e459c30cb87b1765a22469c87031bbd3a3321634"
    },
    {
      "anonymous": false,
      "inputs": [
        {
          "indexed": false,
          "name": "_bountyId",
          "type": "uint256"
        },
        {
          "indexed": false,
          "name": "submittorAddress",
          "type": "address"
        },
        {
          "indexed": false,
          "name": "submissionId",
          "type": "uint256"
        },
        {
          "indexed": false,
          "name": "_text",
          "type": "string"
        }
      ],
      "name": "SubmissionCreated",
      "type": "event",
      "signature": "0xc993ee94c23e25028e713602da05e5245e8e0ef61dce41c8550b77304b131166"
    },
    {
      "constant": false,
      "inputs": [
        {
          "name": "_title",
          "type": "string"
        },
        {
          "name": "_description",
          "type": "string"
        },
        {
          "name": "_price",
          "type": "uint256"
        },
        {
          "name": "_accepted",
          "type": "bool"
        }
      ],
      "name": "createBounty",
      "outputs": [],
      "payable": false,
      "stateMutability": "nonpayable",
      "type": "function",
      "signature": "0x807ee746"
    },
    {
      "constant": false,
      "inputs": [
        {
          "name": "_bountyId",
          "type": "uint256"
        },
        {
          "name": "_text",
          "type": "string"
        }
      ],
      "name": "createBountySubmission",
      "outputs": [],
      "payable": false,
      "stateMutability": "nonpayable",
      "type": "function",
      "signature": "0xa739d4e8"
    },
    {
      "constant": true,
      "inputs": [
        {
          "name": "_bountyId",
          "type": "uint256"
        }
      ],
      "name": "retrieveSubmissionsIds",
      "outputs": [
        {
          "name": "_submissionIds",
          "type": "uint256[]"
        }
      ],
      "payable": false,
      "stateMutability": "view",
      "type": "function",
      "signature": "0x7a0cfe24"
    },
    {
      "constant": true,
      "inputs": [
        {
          "name": "_submissionId",
          "type": "uint256"
        }
      ],
      "name": "retrieveSubmissionsTextFromIds",
      "outputs": [
        {
          "name": "_submissionText",
          "type": "string"
        }
      ],
      "payable": false,
      "stateMutability": "view",
      "type": "function",
      "signature": "0xfcab05dc"
    },
    {
      "constant": true,
      "inputs": [
        {
          "name": "ownerAddress",
          "type": "address"
        }
      ],
      "name": "getBountyByOwnerAddress",
      "outputs": [
        {
          "name": "",
          "type": "uint256[]"
        }
      ],
      "payable": false,
      "stateMutability": "view",
      "type": "function",
      "signature": "0xac3d278b"
    },
    {
      "constant": true,
      "inputs": [
        {
          "name": "id",
          "type": "uint256"
        }
      ],
      "name": "getBountyById",
      "outputs": [
        {
          "name": "title",
          "type": "string"
        },
        {
          "name": "description",
          "type": "string"
        },
        {
          "name": "price",
          "type": "uint256"
        },
        {
          "name": "ownerAddress",
          "type": "address"
        },
        {
          "name": "accepted",
          "type": "bool"
        }
      ],
      "payable": false,
      "stateMutability": "view",
      "type": "function",
      "signature": "0xb2aced4f"
    }
  ],
  "bytecode": "0x608060405234801561001057600080fd5b5061171a806100206000396000f3fe6080604052600436106100af576000357c0100000000000000000000000000000000000000000000000000000000900463ffffffff1680631eab6fd3146100b4578063575d4bfe1461012357806367a07bf51461019e5780637a0cfe24146101f7578063807ee74614610287578063a739d4e8146103fc578063ac3d278b146104ce578063ad73349e14610574578063b2aced4f14610666578063dc2f8744146107cb578063fcab05dc14610930575b600080fd5b3480156100c057600080fd5b5061010d600480360360408110156100d757600080fd5b81019080803573ffffffffffffffffffffffffffffffffffffffff169060200190929190803590602001909291905050506109e4565b6040518082815260200191505060405180910390f35b34801561012f57600080fd5b5061015c6004803603602081101561014657600080fd5b8101908080359060200190929190505050610a14565b604051808273ffffffffffffffffffffffffffffffffffffffff1673ffffffffffffffffffffffffffffffffffffffff16815260200191505060405180910390f35b3480156101aa57600080fd5b506101e1600480360360408110156101c157600080fd5b810190808035906020019092919080359060200190929190505050610a47565b6040518082815260200191505060405180910390f35b34801561020357600080fd5b506102306004803603602081101561021a57600080fd5b8101908080359060200190929190505050610a77565b6040518080602001828103825283818151815260200191508051906020019060200280838360005b83811015610273578082015181840152602081019050610258565b505050509050019250505060405180910390f35b34801561029357600080fd5b506103fa600480360360808110156102aa57600080fd5b81019080803590602001906401000000008111156102c757600080fd5b8201836020820111156102d957600080fd5b803590602001918460018302840111640100000000831117156102fb57600080fd5b91908080601f016020809104026020016040519081016040528093929190818152602001838380828437600081840152601f19601f8201169050808301925050505050505091929192908035906020019064010000000081111561035e57600080fd5b82018360208201111561037057600080fd5b8035906020019184600183028401116401000000008311171561039257600080fd5b91908080601f016020809104026020016040519081016040528093929190818152602001838380828437600081840152601f19601f82011690508083019250505050505050919291929080359060200190929190803515159060200190929190505050610ae2565b005b34801561040857600080fd5b506104cc6004803603604081101561041f57600080fd5b81019080803590602001909291908035906020019064010000000081111561044657600080fd5b82018360208201111561045857600080fd5b8035906020019184600183028401116401000000008311171561047a57600080fd5b91908080601f016020809104026020016040519081016040528093929190818152602001838380828437600081840152601f19601f820116905080830192505050505050509192919290505050610e1e565b005b3480156104da57600080fd5b5061051d600480360360208110156104f157600080fd5b81019080803573ffffffffffffffffffffffffffffffffffffffff16906020019092919050505061102e565b6040518080602001828103825283818151815260200191508051906020019060200280838360005b83811015610560578082015181840152602081019050610545565b505050509050019250505060405180910390f35b34801561058057600080fd5b506105ad6004803603602081101561059757600080fd5b81019080803590602001909291905050506110c5565b6040518084151515158152602001806020018373ffffffffffffffffffffffffffffffffffffffff1673ffffffffffffffffffffffffffffffffffffffff168152602001828103825284818151815260200191508051906020019080838360005b8381101561062957808201518184015260208101905061060e565b50505050905090810190601f1680156106565780820380516001836020036101000a031916815260200191505b5094505050505060405180910390f35b34801561067257600080fd5b5061069f6004803603602081101561068957600080fd5b81019080803590602001909291905050506111c3565b6040518080602001806020018681526020018573ffffffffffffffffffffffffffffffffffffffff1673ffffffffffffffffffffffffffffffffffffffff16815260200184151515158152602001838103835288818151815260200191508051906020019080838360005b8381101561072557808201518184015260208101905061070a565b50505050905090810190601f1680156107525780820380516001836020036101000a031916815260200191505b50838103825287818151815260200191508051906020019080838360005b8381101561078b578082015181840152602081019050610770565b50505050905090810190601f1680156107b85780820380516001836020036101000a031916815260200191505b5097505050505050505060405180910390f35b3480156107d757600080fd5b50610804600480360360208110156107ee57600080fd5b81019080803590602001909291905050506113e5565b6040518080602001806020018681526020018573ffffffffffffffffffffffffffffffffffffffff1673ffffffffffffffffffffffffffffffffffffffff16815260200184151515158152602001838103835288818151815260200191508051906020019080838360005b8381101561088a57808201518184015260208101905061086f565b50505050905090810190601f1680156108b75780820380516001836020036101000a031916815260200191505b50838103825287818151815260200191508051906020019080838360005b838110156108f05780820151818401526020810190506108d5565b50505050905090810190601f16801561091d5780820380516001836020036101000a031916815260200191505b5097505050505050505060405180910390f35b34801561093c57600080fd5b506109696004803603602081101561095357600080fd5b8101908080359060200190929190505050611587565b6040518080602001828103825283818151815260200191508051906020019080838360005b838110156109a957808201518184015260208101905061098e565b50505050905090810190601f1680156109d65780820380516001836020036101000a031916815260200191505b509250505060405180910390f35b6003602052816000526040600020818154811015156109ff57fe5b90600052602060002001600091509150505481565b60026020528060005260406000206000915054906101000a900473ffffffffffffffffffffffffffffffffffffffff1681565b600460205281600052604060002081815481101515610a6257fe5b90600052602060002001600091509150505481565b606060046000838152602001908152602001600020805480602002602001604051908101604052809291908181526020018280548015610ad657602002820191906000526020600020905b815481526020019060010190808311610ac2575b50505050509050919050565b60006001600060a0604051908101604052808881526020018781526020018681526020013373ffffffffffffffffffffffffffffffffffffffff168152602001851515815250908060018154018082558091505090600182039060005260206000209060040201600090919290919091506000820151816000019080519060200190610b6f929190611649565b506020820151816001019080519060200190610b8c929190611649565b506040820151816002015560608201518160030160006101000a81548173ffffffffffffffffffffffffffffffffffffffff021916908373ffffffffffffffffffffffffffffffffffffffff16021790555060808201518160030160146101000a81548160ff0219169083151502179055505050039050336002600083815260200190815260200160002060006101000a81548173ffffffffffffffffffffffffffffffffffffffff021916908373ffffffffffffffffffffffffffffffffffffffff160217905550600360003373ffffffffffffffffffffffffffffffffffffffff1673ffffffffffffffffffffffffffffffffffffffff1681526020019081526020016000208190806001815401808255809150509060018203906000526020600020016000909192909190915055507f8b0f9377bed348b575c2a647e459c30cb87b1765a22469c87031bbd3a33216348186868633876040518087815260200180602001806020018681526020018573ffffffffffffffffffffffffffffffffffffffff1673ffffffffffffffffffffffffffffffffffffffff16815260200184151515158152602001838103835288818151815260200191508051906020019080838360005b83811015610d71578082015181840152602081019050610d56565b50505050905090810190601f168015610d9e5780820380516001836020036101000a031916815260200191505b50838103825287818151815260200191508051906020019080838360005b83811015610dd7578082015181840152602081019050610dbc565b50505050905090810190601f168015610e045780820380516001836020036101000a031916815260200191505b509850505050505050505060405180910390a15050505050565b60006001806060604051908101604052806000151581526020018581526020013373ffffffffffffffffffffffffffffffffffffffff168152509080600181540180825580915050906001820390600052602060002090600302016000909192909190915060008201518160000160006101000a81548160ff0219169083151502179055506020820151816001019080519060200190610ebf929190611649565b5060408201518160020160006101000a81548173ffffffffffffffffffffffffffffffffffffffff021916908373ffffffffffffffffffffffffffffffffffffffff1602179055505050039050600460008481526020019081526020016000208190806001815401808255809150509060018203906000526020600020016000909192909190915055507fc993ee94c23e25028e713602da05e5245e8e0ef61dce41c8550b77304b13116683338385604051808581526020018473ffffffffffffffffffffffffffffffffffffffff1673ffffffffffffffffffffffffffffffffffffffff16815260200183815260200180602001828103825283818151815260200191508051906020019080838360005b83811015610fec578082015181840152602081019050610fd1565b50505050905090810190601f1680156110195780820380516001836020036101000a031916815260200191505b509550505050505060405180910390a1505050565b6060600360008373ffffffffffffffffffffffffffffffffffffffff1673ffffffffffffffffffffffffffffffffffffffff1681526020019081526020016000208054806020026020016040519081016040528092919081815260200182805480156110b957602002820191906000526020600020905b8154815260200190600101908083116110a5575b50505050509050919050565b6001818154811015156110d457fe5b90600052602060002090600302016000915090508060000160009054906101000a900460ff1690806001018054600181600116156101000203166002900480601f0160208091040260200160405190810160405280929190818152602001828054600181600116156101000203166002900480156111935780601f1061116857610100808354040283529160200191611193565b820191906000526020600020905b81548152906001019060200180831161117657829003601f168201915b5050505050908060020160009054906101000a900473ffffffffffffffffffffffffffffffffffffffff16905083565b606080600080600080868154811015156111d957fe5b90600052602060002090600402016000016000878154811015156111f957fe5b906000526020600020906004020160010160008881548110151561121957fe5b90600052602060002090600402016002015460008981548110151561123a57fe5b906000526020600020906004020160030160009054906101000a900473ffffffffffffffffffffffffffffffffffffffff1660008a81548110151561127b57fe5b906000526020600020906004020160030160149054906101000a900460ff16848054600181600116156101000203166002900480601f01602080910402602001604051908101604052809291908181526020018280546001816001161561010002031660029004801561132f5780601f106113045761010080835404028352916020019161132f565b820191906000526020600020905b81548152906001019060200180831161131257829003601f168201915b50505050509450838054600181600116156101000203166002900480601f0160208091040260200160405190810160405280929190818152602001828054600181600116156101000203166002900480156113cb5780601f106113a0576101008083540402835291602001916113cb565b820191906000526020600020905b8154815290600101906020018083116113ae57829003601f168201915b505050505093509450945094509450945091939590929450565b6000818154811015156113f457fe5b9060005260206000209060040201600091509050806000018054600181600116156101000203166002900480601f0160208091040260200160405190810160405280929190818152602001828054600181600116156101000203166002900480156114a05780601f10611475576101008083540402835291602001916114a0565b820191906000526020600020905b81548152906001019060200180831161148357829003601f168201915b505050505090806001018054600181600116156101000203166002900480601f01602080910402602001604051908101604052809291908181526020018280546001816001161561010002031660029004801561153e5780601f106115135761010080835404028352916020019161153e565b820191906000526020600020905b81548152906001019060200180831161152157829003601f168201915b5050505050908060020154908060030160009054906101000a900473ffffffffffffffffffffffffffffffffffffffff16908060030160149054906101000a900460ff16905085565b606060018281548110151561159857fe5b90600052602060002090600302016001018054600181600116156101000203166002900480601f01602080910402602001604051908101604052809291908181526020018280546001816001161561010002031660029004801561163d5780601f106116125761010080835404028352916020019161163d565b820191906000526020600020905b81548152906001019060200180831161162057829003601f168201915b50505050509050919050565b828054600181600116156101000203166002900490600052602060002090601f016020900481019282601f1061168a57805160ff19168380011785556116b8565b828001600101855582156116b8579182015b828111156116b757825182559160200191906001019061169c565b5b5090506116c591906116c9565b5090565b6116eb91905b808211156116e75760008160009055506001016116cf565b5090565b9056fea165627a7a723058206c771b67ecf2b21ef31e18428675366ba25a5049ee156d4478c0e9bf8d4445ef0029",
  "source": "pragma solidity ^0.5.0;\n\ncontract BountyMarket {\n\n  event BountyCreated(uint _id, string _title, string _description, uint _price, address _ownerAddress, bool _accepted);\n\n  event SubmissionCreated(uint _bountyId, address submittorAddress, uint submissionId, string _text);\n\n  struct Bounty {\n    string title;\n    string description;\n    uint price;\n    address ownerAddress;\n    bool accepted;\n  }\n\n  struct Submission {\n    bool accepted;\n    string text;\n    address submittorAddress;\n  }\n\n  Bounty[] public bounties;\n  Submission[] public submissions;\n  mapping (uint => address) public bountyToOwner;\n  mapping (address => uint[]) public ownerToBounty;\n  mapping (uint => uint[]) public bountyIdToSubmissionIds;\n\n  function createBounty(string memory _title, string memory _description, uint _price, bool _accepted) public {\n    uint id = bounties.push(Bounty(_title, _description, _price, msg.sender, _accepted)) -1;\n    bountyToOwner[id] = msg.sender;\n    ownerToBounty[msg.sender].push(id);\n    emit BountyCreated(id, _title, _description, _price, msg.sender, _accepted);\n  }\n\n  function createBountySubmission(uint _bountyId, string memory _text) public {\n    uint submissionId = submissions.push(Submission(false, _text, msg.sender)) -1;\n    bountyIdToSubmissionIds[_bountyId].push(submissionId);\n    emit SubmissionCreated(_bountyId, msg.sender, submissionId, _text);\n  }\n\n  function retrieveSubmissionsIds(uint _bountyId) external view returns (uint[] memory _submissionIds) {\n    return bountyIdToSubmissionIds[_bountyId];\n  }\n\n  function retrieveSubmissionsTextFromIds(uint _submissionId) external view returns (string memory _submissionText) {\n    return submissions[_submissionId].text;\n  }\n\n  function getBountyByOwnerAddress(address ownerAddress) external view returns(uint[] memory) {\n    return ownerToBounty[ownerAddress];\n  }\n\n  function getBountyById(uint id) external view returns(string memory title, string memory description, uint price, address ownerAddress, bool accepted) {\n    return (bounties[id].title, bounties[id].description, bounties[id].price, bounties[id].ownerAddress, bounties[id].accepted);\n  }\n\n}\n",
  "sourcePath": "/Users/JessicaNgo/Desktop/DevAcademy/reactBounty/contracts/BountyMarket.sol",
  "compiler": {
    "name": "solc",
    "version": "0.5.0+commit.1d4f565a.Emscripten.clang"
  },
  "schemaVersion": "3.0.1",
  "updatedAt": "2019-01-24T22:36:59.867Z",
  "devdoc": {
    "methods": {}
  },
  "userdoc": {
    "methods": {}
  }
}