{
  "contractName": "BountyMarket",
  "abi": [
    {
      "constant": true,
      "inputs": [
        {
          "name": "",
          "type": "address"
        },
        {
          "name": "",
          "type": "uint256"
        }
      ],
      "name": "ownerToBounty",
      "outputs": [
        {
          "name": "",
          "type": "uint256"
        }
      ],
      "payable": false,
      "stateMutability": "view",
      "type": "function",
      "signature": "0x1eab6fd3"
    },
    {
      "constant": true,
      "inputs": [
        {
          "name": "",
          "type": "uint256"
        }
      ],
      "name": "bountyToOwner",
      "outputs": [
        {
          "name": "",
          "type": "address"
        }
      ],
      "payable": false,
      "stateMutability": "view",
      "type": "function",
      "signature": "0x575d4bfe"
    },
    {
      "constant": true,
      "inputs": [
        {
          "name": "",
          "type": "uint256"
        },
        {
          "name": "",
          "type": "uint256"
        }
      ],
      "name": "bountyIdToSubmissionIds",
      "outputs": [
        {
          "name": "",
          "type": "uint256"
        }
      ],
      "payable": false,
      "stateMutability": "view",
      "type": "function",
      "signature": "0x67a07bf5"
    },
    {
      "constant": false,
      "inputs": [],
      "name": "renounceOwnership",
      "outputs": [],
      "payable": false,
      "stateMutability": "nonpayable",
      "type": "function",
      "signature": "0x715018a6"
    },
    {
      "constant": true,
      "inputs": [],
      "name": "stopped",
      "outputs": [
        {
          "name": "",
          "type": "bool"
        }
      ],
      "payable": false,
      "stateMutability": "view",
      "type": "function",
      "signature": "0x75f12b21"
    },
    {
      "constant": true,
      "inputs": [],
      "name": "owner",
      "outputs": [
        {
          "name": "",
          "type": "address"
        }
      ],
      "payable": false,
      "stateMutability": "view",
      "type": "function",
      "signature": "0x8da5cb5b"
    },
    {
      "constant": true,
      "inputs": [],
      "name": "isOwner",
      "outputs": [
        {
          "name": "",
          "type": "bool"
        }
      ],
      "payable": false,
      "stateMutability": "view",
      "type": "function",
      "signature": "0x8f32d59b"
    },
    {
      "constant": true,
      "inputs": [
        {
          "name": "",
          "type": "uint256"
        }
      ],
      "name": "submissions",
      "outputs": [
        {
          "name": "approved",
          "type": "bool"
        },
        {
          "name": "text",
          "type": "string"
        },
        {
          "name": "submittorAddress",
          "type": "address"
        }
      ],
      "payable": false,
      "stateMutability": "view",
      "type": "function",
      "signature": "0xad73349e"
    },
    {
      "constant": true,
      "inputs": [
        {
          "name": "",
          "type": "uint256"
        }
      ],
      "name": "bounties",
      "outputs": [
        {
          "name": "title",
          "type": "string"
        },
        {
          "name": "description",
          "type": "string"
        },
        {
          "name": "reward",
          "type": "uint256"
        },
        {
          "name": "ownerAddress",
          "type": "address"
        },
        {
          "name": "approved",
          "type": "bool"
        }
      ],
      "payable": false,
      "stateMutability": "view",
      "type": "function",
      "signature": "0xdc2f8744"
    },
    {
      "constant": false,
      "inputs": [
        {
          "name": "newOwner",
          "type": "address"
        }
      ],
      "name": "transferOwnership",
      "outputs": [],
      "payable": false,
      "stateMutability": "nonpayable",
      "type": "function",
      "signature": "0xf2fde38b"
    },
    {
      "anonymous": false,
      "inputs": [
        {
          "indexed": false,
          "name": "_id",
          "type": "uint256"
        },
        {
          "indexed": false,
          "name": "_title",
          "type": "string"
        },
        {
          "indexed": false,
          "name": "_description",
          "type": "string"
        },
        {
          "indexed": false,
          "name": "_reward",
          "type": "uint256"
        },
        {
          "indexed": false,
          "name": "_ownerAddress",
          "type": "address"
        },
        {
          "indexed": false,
          "name": "_approved",
          "type": "bool"
        }
      ],
      "name": "BountyCreated",
      "type": "event",
      "signature": "0x8b0f9377bed348b575c2a647e459c30cb87b1765a22469c87031bbd3a3321634"
    },
    {
      "anonymous": false,
      "inputs": [
        {
          "indexed": false,
          "name": "_bountyId",
          "type": "uint256"
        },
        {
          "indexed": false,
          "name": "submittorAddress",
          "type": "address"
        },
        {
          "indexed": false,
          "name": "submissionId",
          "type": "uint256"
        },
        {
          "indexed": false,
          "name": "_text",
          "type": "string"
        }
      ],
      "name": "SubmissionCreated",
      "type": "event",
      "signature": "0xc993ee94c23e25028e713602da05e5245e8e0ef61dce41c8550b77304b131166"
    },
    {
      "anonymous": false,
      "inputs": [
        {
          "indexed": false,
          "name": "_bountyId",
          "type": "uint256"
        },
        {
          "indexed": false,
          "name": "_ownerAddress",
          "type": "address"
        },
        {
          "indexed": false,
          "name": "_submittorAddress",
          "type": "address"
        },
        {
          "indexed": false,
          "name": "reward",
          "type": "uint256"
        }
      ],
      "name": "SubmissionApprovedTransferred",
      "type": "event",
      "signature": "0xa12c8077484505f7f2215f7a8b48429f0e50c833109a34d769fc2b2144f570a6"
    },
    {
      "anonymous": false,
      "inputs": [
        {
          "indexed": true,
          "name": "previousOwner",
          "type": "address"
        },
        {
          "indexed": true,
          "name": "newOwner",
          "type": "address"
        }
      ],
      "name": "OwnershipTransferred",
      "type": "event",
      "signature": "0x8be0079c531659141344cd1fd0a4f28419497f9722a3daafe3b4186f6b6457e0"
    },
    {
      "constant": false,
      "inputs": [
        {
          "name": "_title",
          "type": "string"
        },
        {
          "name": "_description",
          "type": "string"
        },
        {
          "name": "_reward",
          "type": "uint256"
        },
        {
          "name": "_approved",
          "type": "bool"
        }
      ],
      "name": "createBounty",
      "outputs": [],
      "payable": false,
      "stateMutability": "nonpayable",
      "type": "function",
      "signature": "0x807ee746"
    },
    {
      "constant": false,
      "inputs": [
        {
          "name": "_bountyId",
          "type": "uint256"
        },
        {
          "name": "_text",
          "type": "string"
        }
      ],
      "name": "createBountySubmission",
      "outputs": [],
      "payable": false,
      "stateMutability": "nonpayable",
      "type": "function",
      "signature": "0xa739d4e8"
    },
    {
      "constant": true,
      "inputs": [
        {
          "name": "_bountyId",
          "type": "uint256"
        }
      ],
      "name": "retrieveSubmissionsIds",
      "outputs": [
        {
          "name": "_submissionIds",
          "type": "uint256[]"
        }
      ],
      "payable": false,
      "stateMutability": "view",
      "type": "function",
      "signature": "0x7a0cfe24"
    },
    {
      "constant": true,
      "inputs": [
        {
          "name": "_submissionId",
          "type": "uint256"
        }
      ],
      "name": "retrieveSubmissionsTextandAddressFromIds",
      "outputs": [
        {
          "name": "_submissionText",
          "type": "string"
        },
        {
          "name": "_submittorAddress",
          "type": "address"
        }
      ],
      "payable": false,
      "stateMutability": "view",
      "type": "function",
      "signature": "0x4d69316d"
    },
    {
      "constant": true,
      "inputs": [
        {
          "name": "ownerAddress",
          "type": "address"
        }
      ],
      "name": "getBountyByOwnerAddress",
      "outputs": [
        {
          "name": "",
          "type": "uint256[]"
        }
      ],
      "payable": false,
      "stateMutability": "view",
      "type": "function",
      "signature": "0xac3d278b"
    },
    {
      "constant": true,
      "inputs": [
        {
          "name": "id",
          "type": "uint256"
        }
      ],
      "name": "getBountyById",
      "outputs": [
        {
          "name": "title",
          "type": "string"
        },
        {
          "name": "description",
          "type": "string"
        },
        {
          "name": "reward",
          "type": "uint256"
        },
        {
          "name": "ownerAddress",
          "type": "address"
        },
        {
          "name": "approved",
          "type": "bool"
        }
      ],
      "payable": false,
      "stateMutability": "view",
      "type": "function",
      "signature": "0xb2aced4f"
    },
    {
      "constant": false,
      "inputs": [
        {
          "name": "_bountyId",
          "type": "uint256"
        },
        {
          "name": "_submissionId",
          "type": "uint256"
        }
      ],
      "name": "approveAndTransfer",
      "outputs": [],
      "payable": true,
      "stateMutability": "payable",
      "type": "function",
      "signature": "0xe7da473d"
    }
  ],
  "bytecode": "0x60806040526000600660006101000a81548160ff021916908315150217905550336000806101000a81548173ffffffffffffffffffffffffffffffffffffffff021916908373ffffffffffffffffffffffffffffffffffffffff1602179055506000809054906101000a900473ffffffffffffffffffffffffffffffffffffffff1673ffffffffffffffffffffffffffffffffffffffff16600073ffffffffffffffffffffffffffffffffffffffff167f8be0079c531659141344cd1fd0a4f28419497f9722a3daafe3b4186f6b6457e060405160405180910390a3611f7a806100ea6000396000f3fe6080604052600436106100f1576000357c0100000000000000000000000000000000000000000000000000000000900463ffffffff1680631eab6fd3146100f65780634d69316d14610165578063575d4bfe1461024c57806367a07bf5146102c7578063715018a61461032057806375f12b21146103375780637a0cfe2414610366578063807ee746146103f65780638da5cb5b1461056b5780638f32d59b146105c2578063a739d4e8146105f1578063ac3d278b146106c3578063ad73349e14610769578063b2aced4f1461085b578063dc2f8744146109c0578063e7da473d14610b25578063f2fde38b14610b5d575b600080fd5b34801561010257600080fd5b5061014f6004803603604081101561011957600080fd5b81019080803573ffffffffffffffffffffffffffffffffffffffff16906020019092919080359060200190929190505050610bae565b6040518082815260200191505060405180910390f35b34801561017157600080fd5b5061019e6004803603602081101561018857600080fd5b8101908080359060200190929190505050610bde565b60405180806020018373ffffffffffffffffffffffffffffffffffffffff1673ffffffffffffffffffffffffffffffffffffffff168152602001828103825284818151815260200191508051906020019080838360005b838110156102105780820151818401526020810190506101f5565b50505050905090810190601f16801561023d5780820380516001836020036101000a031916815260200191505b50935050505060405180910390f35b34801561025857600080fd5b506102856004803603602081101561026f57600080fd5b8101908080359060200190929190505050610ceb565b604051808273ffffffffffffffffffffffffffffffffffffffff1673ffffffffffffffffffffffffffffffffffffffff16815260200191505060405180910390f35b3480156102d357600080fd5b5061030a600480360360408110156102ea57600080fd5b810190808035906020019092919080359060200190929190505050610d1e565b6040518082815260200191505060405180910390f35b34801561032c57600080fd5b50610335610d4e565b005b34801561034357600080fd5b5061034c610e20565b604051808215151515815260200191505060405180910390f35b34801561037257600080fd5b5061039f6004803603602081101561038957600080fd5b8101908080359060200190929190505050610e33565b6040518080602001828103825283818151815260200191508051906020019060200280838360005b838110156103e25780820151818401526020810190506103c7565b505050509050019250505060405180910390f35b34801561040257600080fd5b506105696004803603608081101561041957600080fd5b810190808035906020019064010000000081111561043657600080fd5b82018360208201111561044857600080fd5b8035906020019184600183028401116401000000008311171561046a57600080fd5b91908080601f016020809104026020016040519081016040528093929190818152602001838380828437600081840152601f19601f820116905080830192505050505050509192919290803590602001906401000000008111156104cd57600080fd5b8201836020820111156104df57600080fd5b8035906020019184600183028401116401000000008311171561050157600080fd5b91908080601f016020809104026020016040519081016040528093929190818152602001838380828437600081840152601f19601f82011690508083019250505050505050919291929080359060200190929190803515159060200190929190505050610e9e565b005b34801561057757600080fd5b506105806111eb565b604051808273ffffffffffffffffffffffffffffffffffffffff1673ffffffffffffffffffffffffffffffffffffffff16815260200191505060405180910390f35b3480156105ce57600080fd5b506105d7611214565b604051808215151515815260200191505060405180910390f35b3480156105fd57600080fd5b506106c16004803603604081101561061457600080fd5b81019080803590602001909291908035906020019064010000000081111561063b57600080fd5b82018360208201111561064d57600080fd5b8035906020019184600183028401116401000000008311171561066f57600080fd5b91908080601f016020809104026020016040519081016040528093929190818152602001838380828437600081840152601f19601f82011690508083019250505050505050919291929050505061126b565b005b3480156106cf57600080fd5b50610712600480360360208110156106e657600080fd5b81019080803573ffffffffffffffffffffffffffffffffffffffff16906020019092919050505061147c565b6040518080602001828103825283818151815260200191508051906020019060200280838360005b8381101561075557808201518184015260208101905061073a565b505050509050019250505060405180910390f35b34801561077557600080fd5b506107a26004803603602081101561078c57600080fd5b8101908080359060200190929190505050611513565b6040518084151515158152602001806020018373ffffffffffffffffffffffffffffffffffffffff1673ffffffffffffffffffffffffffffffffffffffff168152602001828103825284818151815260200191508051906020019080838360005b8381101561081e578082015181840152602081019050610803565b50505050905090810190601f16801561084b5780820380516001836020036101000a031916815260200191505b5094505050505060405180910390f35b34801561086757600080fd5b506108946004803603602081101561087e57600080fd5b8101908080359060200190929190505050611611565b6040518080602001806020018681526020018573ffffffffffffffffffffffffffffffffffffffff1673ffffffffffffffffffffffffffffffffffffffff16815260200184151515158152602001838103835288818151815260200191508051906020019080838360005b8381101561091a5780820151818401526020810190506108ff565b50505050905090810190601f1680156109475780820380516001836020036101000a031916815260200191505b50838103825287818151815260200191508051906020019080838360005b83811015610980578082015181840152602081019050610965565b50505050905090810190601f1680156109ad5780820380516001836020036101000a031916815260200191505b5097505050505050505060405180910390f35b3480156109cc57600080fd5b506109f9600480360360208110156109e357600080fd5b8101908080359060200190929190505050611834565b6040518080602001806020018681526020018573ffffffffffffffffffffffffffffffffffffffff1673ffffffffffffffffffffffffffffffffffffffff16815260200184151515158152602001838103835288818151815260200191508051906020019080838360005b83811015610a7f578082015181840152602081019050610a64565b50505050905090810190601f168015610aac5780820380516001836020036101000a031916815260200191505b50838103825287818151815260200191508051906020019080838360005b83811015610ae5578082015181840152602081019050610aca565b50505050905090810190601f168015610b125780820380516001836020036101000a031916815260200191505b5097505050505050505060405180910390f35b610b5b60048036036040811015610b3b57600080fd5b8101908080359060200190929190803590602001909291905050506119d6565b005b348015610b6957600080fd5b50610bac60048036036020811015610b8057600080fd5b81019080803573ffffffffffffffffffffffffffffffffffffffff169060200190929190505050611d90565b005b600460205281600052604060002081815481101515610bc957fe5b90600052602060002001600091509150505481565b60606000600283815481101515610bf157fe5b9060005260206000209060030201600101600284815481101515610c1157fe5b906000526020600020906003020160020160009054906101000a900473ffffffffffffffffffffffffffffffffffffffff16818054600181600116156101000203166002900480601f016020809104026020016040519081016040528092919081815260200182805460018160011615610100020316600290048015610cd85780601f10610cad57610100808354040283529160200191610cd8565b820191906000526020600020905b815481529060010190602001808311610cbb57829003601f168201915b5050505050915080905091509150915091565b60036020528060005260406000206000915054906101000a900473ffffffffffffffffffffffffffffffffffffffff1681565b600560205281600052604060002081815481101515610d3957fe5b90600052602060002001600091509150505481565b610d56611214565b1515610d6157600080fd5b600073ffffffffffffffffffffffffffffffffffffffff166000809054906101000a900473ffffffffffffffffffffffffffffffffffffffff1673ffffffffffffffffffffffffffffffffffffffff167f8be0079c531659141344cd1fd0a4f28419497f9722a3daafe3b4186f6b6457e060405160405180910390a360008060006101000a81548173ffffffffffffffffffffffffffffffffffffffff021916908373ffffffffffffffffffffffffffffffffffffffff160217905550565b600660009054906101000a900460ff1681565b606060056000838152602001908152602001600020805480602002602001604051908101604052809291908181526020018280548015610e9257602002820191906000526020600020905b815481526020019060010190808311610e7e575b50505050509050919050565b8160008114151515610eaf57600080fd5b600060018060a0604051908101604052808981526020018881526020018781526020013373ffffffffffffffffffffffffffffffffffffffff168152602001861515815250908060018154018082558091505090600182039060005260206000209060040201600090919290919091506000820151816000019080519060200190610f3b929190611ea9565b506020820151816001019080519060200190610f58929190611ea9565b506040820151816002015560608201518160030160006101000a81548173ffffffffffffffffffffffffffffffffffffffff021916908373ffffffffffffffffffffffffffffffffffffffff16021790555060808201518160030160146101000a81548160ff0219169083151502179055505050039050336003600083815260200190815260200160002060006101000a81548173ffffffffffffffffffffffffffffffffffffffff021916908373ffffffffffffffffffffffffffffffffffffffff160217905550600460003373ffffffffffffffffffffffffffffffffffffffff1673ffffffffffffffffffffffffffffffffffffffff1681526020019081526020016000208190806001815401808255809150509060018203906000526020600020016000909192909190915055507f8b0f9377bed348b575c2a647e459c30cb87b1765a22469c87031bbd3a33216348187878733886040518087815260200180602001806020018681526020018573ffffffffffffffffffffffffffffffffffffffff1673ffffffffffffffffffffffffffffffffffffffff16815260200184151515158152602001838103835288818151815260200191508051906020019080838360005b8381101561113d578082015181840152602081019050611122565b50505050905090810190601f16801561116a5780820380516001836020036101000a031916815260200191505b50838103825287818151815260200191508051906020019080838360005b838110156111a3578082015181840152602081019050611188565b50505050905090810190601f1680156111d05780820380516001836020036101000a031916815260200191505b509850505050505050505060405180910390a1505050505050565b60008060009054906101000a900473ffffffffffffffffffffffffffffffffffffffff16905090565b60008060009054906101000a900473ffffffffffffffffffffffffffffffffffffffff1673ffffffffffffffffffffffffffffffffffffffff163373ffffffffffffffffffffffffffffffffffffffff1614905090565b6000600160026060604051908101604052806000151581526020018581526020013373ffffffffffffffffffffffffffffffffffffffff168152509080600181540180825580915050906001820390600052602060002090600302016000909192909190915060008201518160000160006101000a81548160ff021916908315150217905550602082015181600101908051906020019061130d929190611ea9565b5060408201518160020160006101000a81548173ffffffffffffffffffffffffffffffffffffffff021916908373ffffffffffffffffffffffffffffffffffffffff1602179055505050039050600560008481526020019081526020016000208190806001815401808255809150509060018203906000526020600020016000909192909190915055507fc993ee94c23e25028e713602da05e5245e8e0ef61dce41c8550b77304b13116683338385604051808581526020018473ffffffffffffffffffffffffffffffffffffffff1673ffffffffffffffffffffffffffffffffffffffff16815260200183815260200180602001828103825283818151815260200191508051906020019080838360005b8381101561143a57808201518184015260208101905061141f565b50505050905090810190601f1680156114675780820380516001836020036101000a031916815260200191505b509550505050505060405180910390a1505050565b6060600460008373ffffffffffffffffffffffffffffffffffffffff1673ffffffffffffffffffffffffffffffffffffffff16815260200190815260200160002080548060200260200160405190810160405280929190818152602001828054801561150757602002820191906000526020600020905b8154815260200190600101908083116114f3575b50505050509050919050565b60028181548110151561152257fe5b90600052602060002090600302016000915090508060000160009054906101000a900460ff1690806001018054600181600116156101000203166002900480601f0160208091040260200160405190810160405280929190818152602001828054600181600116156101000203166002900480156115e15780601f106115b6576101008083540402835291602001916115e1565b820191906000526020600020905b8154815290600101906020018083116115c457829003601f168201915b5050505050908060020160009054906101000a900473ffffffffffffffffffffffffffffffffffffffff16905083565b606080600080600060018681548110151561162857fe5b906000526020600020906004020160000160018781548110151561164857fe5b906000526020600020906004020160010160018881548110151561166857fe5b90600052602060002090600402016002015460018981548110151561168957fe5b906000526020600020906004020160030160009054906101000a900473ffffffffffffffffffffffffffffffffffffffff1660018a8154811015156116ca57fe5b906000526020600020906004020160030160149054906101000a900460ff16848054600181600116156101000203166002900480601f01602080910402602001604051908101604052809291908181526020018280546001816001161561010002031660029004801561177e5780601f106117535761010080835404028352916020019161177e565b820191906000526020600020905b81548152906001019060200180831161176157829003601f168201915b50505050509450838054600181600116156101000203166002900480601f01602080910402602001604051908101604052809291908181526020018280546001816001161561010002031660029004801561181a5780601f106117ef5761010080835404028352916020019161181a565b820191906000526020600020905b8154815290600101906020018083116117fd57829003601f168201915b505050505093509450945094509450945091939590929450565b60018181548110151561184357fe5b9060005260206000209060040201600091509050806000018054600181600116156101000203166002900480601f0160208091040260200160405190810160405280929190818152602001828054600181600116156101000203166002900480156118ef5780601f106118c4576101008083540402835291602001916118ef565b820191906000526020600020905b8154815290600101906020018083116118d257829003601f168201915b505050505090806001018054600181600116156101000203166002900480601f01602080910402602001604051908101604052809291908181526020018280546001816001161561010002031660029004801561198d5780601f106119625761010080835404028352916020019161198d565b820191906000526020600020905b81548152906001019060200180831161197057829003601f168201915b5050505050908060020154908060030160009054906101000a900473ffffffffffffffffffffffffffffffffffffffff16908060030160149054906101000a900460ff16905085565b816001818154811015156119e657fe5b906000526020600020906004020160020154600182815481101515611a0757fe5b906000526020600020906004020160030160009054906101000a900473ffffffffffffffffffffffffffffffffffffffff1673ffffffffffffffffffffffffffffffffffffffff163110151515611aec576040517f08c379a000000000000000000000000000000000000000000000000000000000815260040180806020018281038252602f8152602001807f596f7520646f6e206e6f74206861766520656e6f7567682066756e647320746f81526020017f207061792074686520726577617264000000000000000000000000000000000081525060400191505060405180910390fd5b82600181815481101515611afc57fe5b906000526020600020906004020160030160009054906101000a900473ffffffffffffffffffffffffffffffffffffffff1673ffffffffffffffffffffffffffffffffffffffff163373ffffffffffffffffffffffffffffffffffffffff16141515611b6757600080fd5b600660009054906101000a900460ff16151515611b8357600080fd5b6001600284815481101515611b9457fe5b906000526020600020906003020160000160006101000a81548160ff021916908315150217905550600283815481101515611bcb57fe5b906000526020600020906003020160020160009054906101000a900473ffffffffffffffffffffffffffffffffffffffff1673ffffffffffffffffffffffffffffffffffffffff166108fc349081150290604051600060405180830381858888f19350505050158015611c42573d6000803e3d6000fd5b507fa12c8077484505f7f2215f7a8b48429f0e50c833109a34d769fc2b2144f570a684600186815481101515611c7457fe5b906000526020600020906004020160030160009054906101000a900473ffffffffffffffffffffffffffffffffffffffff16600286815481101515611cb557fe5b906000526020600020906003020160020160009054906101000a900473ffffffffffffffffffffffffffffffffffffffff16600188815481101515611cf657fe5b906000526020600020906004020160020154604051808581526020018473ffffffffffffffffffffffffffffffffffffffff1673ffffffffffffffffffffffffffffffffffffffff1681526020018373ffffffffffffffffffffffffffffffffffffffff1673ffffffffffffffffffffffffffffffffffffffff16815260200182815260200194505050505060405180910390a150505050565b611d98611214565b1515611da357600080fd5b611dac81611daf565b50565b600073ffffffffffffffffffffffffffffffffffffffff168173ffffffffffffffffffffffffffffffffffffffff1614151515611deb57600080fd5b8073ffffffffffffffffffffffffffffffffffffffff166000809054906101000a900473ffffffffffffffffffffffffffffffffffffffff1673ffffffffffffffffffffffffffffffffffffffff167f8be0079c531659141344cd1fd0a4f28419497f9722a3daafe3b4186f6b6457e060405160405180910390a3806000806101000a81548173ffffffffffffffffffffffffffffffffffffffff021916908373ffffffffffffffffffffffffffffffffffffffff16021790555050565b828054600181600116156101000203166002900490600052602060002090601f016020900481019282601f10611eea57805160ff1916838001178555611f18565b82800160010185558215611f18579182015b82811115611f17578251825591602001919060010190611efc565b5b509050611f259190611f29565b5090565b611f4b91905b80821115611f47576000816000905550600101611f2f565b5090565b9056fea165627a7a7230582067700ffca9455d34ff3e6859aba8d4c5ea5738c581cfeeeac7f13515308099270029",
  "source": "pragma solidity ^0.5.0;\n\n/* import Ownable contract from openzeppelin-solidity for basic authorization control */\nimport 'openzeppelin-solidity/contracts/ownership/Ownable.sol';\n\n/** @title Bounty Market */\ncontract BountyMarket is Ownable {\n\n  /* event fires when bounty is created */\n  event BountyCreated(uint _id, string _title, string _description, uint _reward, address _ownerAddress, bool _approved);\n  /* event fires when submissio is created */\n  event SubmissionCreated(uint _bountyId, address submittorAddress, uint submissionId, string _text);\n  /* event fires when submission is approved by bounty owner and funds are transferred */\n  event SubmissionApprovedTransferred(uint _bountyId, address _ownerAddress, address _submittorAddress, uint reward);\n\n\n  /* checks that value is not zero */\n  modifier valueNotZero(uint _value) {\n    require(_value != 0);\n    _;\n  }\n  /* check for sufficient funds for reward payment */\n  modifier checkRewardDeposit(uint _bountyId) {\n      require(bounties[_bountyId].ownerAddress.balance >= bounties[_bountyId].reward, 'You don not have enough funds to pay the reward');\n      _;\n  }\n  /* only bounty owner is allowed to run the function */\n  modifier onlyBountyOwner(uint _bountyId) {\n    require(msg.sender == bounties[_bountyId].ownerAddress);\n    _;\n  }\n\n  /* circuit breaker */\n  modifier stopInEmergency() { require(!stopped); _; }\n\n  struct Bounty {\n    string title;\n    string description;\n    uint reward;\n    address ownerAddress;\n    bool approved;\n  }\n\n  struct Submission {\n    bool approved;\n    string text;\n    address payable submittorAddress;\n  }\n\n  Bounty[] public bounties;\n  Submission[] public submissions;\n  mapping (uint => address) public bountyToOwner;\n  mapping (address => uint[]) public ownerToBounty;\n  mapping (uint => uint[]) public bountyIdToSubmissionIds;\n  /* circuit breaker implementation */\n  bool public stopped = false;\n\n  /** @dev creates new bounty\n  @param _title - bounty title\n  @param _description - bounty task description\n  @param _reward - bounty reward issue by bounty creator/owner to successful submittors\n  @param _approved - bounty chosen by bounty owner */\n  function createBounty(string memory _title, string memory _description, uint _reward, bool _approved) public valueNotZero(_reward) {\n    uint id = bounties.push(Bounty(_title, _description, _reward, msg.sender, _approved)) -1;\n    bountyToOwner[id] = msg.sender;\n    ownerToBounty[msg.sender].push(id);\n    emit BountyCreated(id, _title, _description, _reward, msg.sender, _approved);\n  }\n\n  /** @dev create new submission for a bounty\n  @param _bountyId - submission is created for this bounty\n  @param _text - response created by the submittor for the bounty task */\n  function createBountySubmission(uint _bountyId, string memory _text) public {\n    uint submissionId = submissions.push(Submission(false, _text, msg.sender)) -1;\n    bountyIdToSubmissionIds[_bountyId].push(submissionId);\n    emit SubmissionCreated(_bountyId, msg.sender, submissionId, _text);\n  }\n\n  /** @dev retrieve submissions objects with submission ids, once they have been submitted\n  @param _bountyId - submissions are retrieved for this bounty\n  @return a list of submissionId's linked to the bounty */\n  function retrieveSubmissionsIds(uint _bountyId) external view returns (uint[] memory _submissionIds) {\n    return bountyIdToSubmissionIds[_bountyId];\n  }\n\n  /** @dev retrieve the text and submittor address of a submission with a submission id\n  @param _submissionId - submissions id to retrieve submission text and submittor address\n  @return text and submittor ddress of submission */\n  function retrieveSubmissionsTextandAddressFromIds(uint _submissionId) external view returns (string memory _submissionText, address _submittorAddress) {\n    return (submissions[_submissionId].text, submissions[_submissionId].submittorAddress);\n  }\n  /** @dev retrieve bounty with a bounty owners address\n  @param ownerAddress - bounty owner address\n  @return array of bountyId's associated with address for all bounties created byt this owner */\n  function getBountyByOwnerAddress(address ownerAddress) external view returns(uint[] memory) {\n    return ownerToBounty[ownerAddress];\n  }\n\n  /** @dev retrieve bounty with a bounty owners id\n  @param id - bounty id\n  @return title, description, bounty reward, owner address and approval state of Bounty retrieved by bounty id */\n  function getBountyById(uint id) external view returns(string memory title, string memory description, uint reward, address ownerAddress, bool approved) {\n    return (bounties[id].title, bounties[id].description, bounties[id].reward, bounties[id].ownerAddress, bounties[id].approved);\n  }\n\n  /** @dev bounty owner approves the submission and transfers reward amount to submittor\n  @param _bountyId - bounty id of bounty in question\n  @param _submissionId - submission id of winning submission to be rewarded */\n  function approveAndTransfer(uint _bountyId, uint _submissionId) payable public checkRewardDeposit(_bountyId) onlyBountyOwner(_bountyId) stopInEmergency() {\n    submissions[_submissionId].approved = true;\n    submissions[_submissionId].submittorAddress.transfer(msg.value);\n    emit SubmissionApprovedTransferred(_bountyId, bounties[_bountyId].ownerAddress, submissions[_submissionId].submittorAddress, bounties[_bountyId].reward);\n  }\n}\n",
  "sourcePath": "/Users/JessicaNgo/Desktop/DevAcademy/reactBounty/contracts/BountyMarket.sol",
  "compiler": {
    "name": "solc",
    "version": "0.5.0+commit.1d4f565a.Emscripten.clang"
  },
  "schemaVersion": "3.0.1",
  "updatedAt": "2019-01-27T22:47:10.367Z",
  "devdoc": {
    "methods": {
      "approveAndTransfer(uint256,uint256)": {
        "details": "bounty owner approves the submission and transfers reward amount to submittor",
        "params": {
          "_bountyId": "- bounty id of bounty in question",
          "_submissionId": "- submission id of winning submission to be rewarded "
        }
      },
      "createBounty(string,string,uint256,bool)": {
        "details": "creates new bounty",
        "params": {
          "_approved": "- bounty chosen by bounty owner ",
          "_description": "- bounty task description",
          "_reward": "- bounty reward issue by bounty creator/owner to successful submittors",
          "_title": "- bounty title"
        }
      },
      "createBountySubmission(uint256,string)": {
        "details": "create new submission for a bounty",
        "params": {
          "_bountyId": "- submission is created for this bounty",
          "_text": "- response created by the submittor for the bounty task "
        }
      },
      "getBountyById(uint256)": {
        "details": "retrieve bounty with a bounty owners id",
        "params": {
          "id": "- bounty id"
        },
        "return": "title, description, bounty reward, owner address and approval state of Bounty retrieved by bounty id "
      },
      "getBountyByOwnerAddress(address)": {
        "details": "retrieve bounty with a bounty owners address",
        "params": {
          "ownerAddress": "- bounty owner address"
        },
        "return": "array of bountyId's associated with address for all bounties created byt this owner "
      },
      "isOwner()": {
        "return": "true if `msg.sender` is the owner of the contract."
      },
      "owner()": {
        "return": "the address of the owner."
      },
      "renounceOwnership()": {
        "details": "Allows the current owner to relinquish control of the contract."
      },
      "retrieveSubmissionsIds(uint256)": {
        "details": "retrieve submissions objects with submission ids, once they have been submitted",
        "params": {
          "_bountyId": "- submissions are retrieved for this bounty"
        },
        "return": "a list of submissionId's linked to the bounty "
      },
      "retrieveSubmissionsTextandAddressFromIds(uint256)": {
        "details": "retrieve the text and submittor address of a submission with a submission id",
        "params": {
          "_submissionId": "- submissions id to retrieve submission text and submittor address"
        },
        "return": "text and submittor ddress of submission "
      },
      "transferOwnership(address)": {
        "details": "Allows the current owner to transfer control of the contract to a newOwner.",
        "params": {
          "newOwner": "The address to transfer ownership to."
        }
      }
    },
    "title": "Bounty Market "
  },
  "userdoc": {
    "methods": {
      "renounceOwnership()": {
        "notice": "Renouncing to ownership will leave the contract without an owner. It will not be possible to call the functions with the `onlyOwner` modifier anymore."
      }
    }
  }
}