{
  "contractName": "BountyMarket",
  "abi": [
    {
      "constant": true,
      "inputs": [
        {
          "name": "",
          "type": "address"
        },
        {
          "name": "",
          "type": "uint256"
        }
      ],
      "name": "ownerToBounty",
      "outputs": [
        {
          "name": "",
          "type": "uint256"
        }
      ],
      "payable": false,
      "stateMutability": "view",
      "type": "function"
    },
    {
      "constant": true,
      "inputs": [
        {
          "name": "",
          "type": "uint256"
        }
      ],
      "name": "bountyToOwner",
      "outputs": [
        {
          "name": "",
          "type": "address"
        }
      ],
      "payable": false,
      "stateMutability": "view",
      "type": "function"
    },
    {
      "constant": true,
      "inputs": [
        {
          "name": "",
          "type": "uint256"
        },
        {
          "name": "",
          "type": "uint256"
        }
      ],
      "name": "bountyIdToSubmissionIds",
      "outputs": [
        {
          "name": "",
          "type": "uint256"
        }
      ],
      "payable": false,
      "stateMutability": "view",
      "type": "function"
    },
    {
      "constant": false,
      "inputs": [],
      "name": "renounceOwnership",
      "outputs": [],
      "payable": false,
      "stateMutability": "nonpayable",
      "type": "function"
    },
    {
      "constant": true,
      "inputs": [],
      "name": "owner",
      "outputs": [
        {
          "name": "",
          "type": "address"
        }
      ],
      "payable": false,
      "stateMutability": "view",
      "type": "function"
    },
    {
      "constant": true,
      "inputs": [],
      "name": "isOwner",
      "outputs": [
        {
          "name": "",
          "type": "bool"
        }
      ],
      "payable": false,
      "stateMutability": "view",
      "type": "function"
    },
    {
      "constant": true,
      "inputs": [
        {
          "name": "",
          "type": "uint256"
        }
      ],
      "name": "submissions",
      "outputs": [
        {
          "name": "approved",
          "type": "bool"
        },
        {
          "name": "text",
          "type": "string"
        },
        {
          "name": "submittorAddress",
          "type": "address"
        }
      ],
      "payable": false,
      "stateMutability": "view",
      "type": "function"
    },
    {
      "constant": true,
      "inputs": [
        {
          "name": "",
          "type": "uint256"
        }
      ],
      "name": "bounties",
      "outputs": [
        {
          "name": "title",
          "type": "string"
        },
        {
          "name": "description",
          "type": "string"
        },
        {
          "name": "reward",
          "type": "uint256"
        },
        {
          "name": "ownerAddress",
          "type": "address"
        },
        {
          "name": "approved",
          "type": "bool"
        }
      ],
      "payable": false,
      "stateMutability": "view",
      "type": "function"
    },
    {
      "constant": false,
      "inputs": [
        {
          "name": "newOwner",
          "type": "address"
        }
      ],
      "name": "transferOwnership",
      "outputs": [],
      "payable": false,
      "stateMutability": "nonpayable",
      "type": "function"
    },
    {
      "anonymous": false,
      "inputs": [
        {
          "indexed": false,
          "name": "_id",
          "type": "uint256"
        },
        {
          "indexed": false,
          "name": "_title",
          "type": "string"
        },
        {
          "indexed": false,
          "name": "_description",
          "type": "string"
        },
        {
          "indexed": false,
          "name": "_reward",
          "type": "uint256"
        },
        {
          "indexed": false,
          "name": "_ownerAddress",
          "type": "address"
        },
        {
          "indexed": false,
          "name": "_approved",
          "type": "bool"
        }
      ],
      "name": "BountyCreated",
      "type": "event"
    },
    {
      "anonymous": false,
      "inputs": [
        {
          "indexed": false,
          "name": "_bountyId",
          "type": "uint256"
        },
        {
          "indexed": false,
          "name": "submittorAddress",
          "type": "address"
        },
        {
          "indexed": false,
          "name": "submissionId",
          "type": "uint256"
        },
        {
          "indexed": false,
          "name": "_text",
          "type": "string"
        }
      ],
      "name": "SubmissionCreated",
      "type": "event"
    },
    {
      "anonymous": false,
      "inputs": [
        {
          "indexed": false,
          "name": "_bountyId",
          "type": "uint256"
        },
        {
          "indexed": false,
          "name": "_ownerAddress",
          "type": "address"
        },
        {
          "indexed": false,
          "name": "_submittorAddress",
          "type": "address"
        },
        {
          "indexed": false,
          "name": "reward",
          "type": "uint256"
        }
      ],
      "name": "SubmissionApprovedTransferred",
      "type": "event"
    },
    {
      "anonymous": false,
      "inputs": [
        {
          "indexed": true,
          "name": "previousOwner",
          "type": "address"
        },
        {
          "indexed": true,
          "name": "newOwner",
          "type": "address"
        }
      ],
      "name": "OwnershipTransferred",
      "type": "event"
    },
    {
      "constant": false,
      "inputs": [
        {
          "name": "_title",
          "type": "string"
        },
        {
          "name": "_description",
          "type": "string"
        },
        {
          "name": "_reward",
          "type": "uint256"
        },
        {
          "name": "_approved",
          "type": "bool"
        }
      ],
      "name": "createBounty",
      "outputs": [],
      "payable": false,
      "stateMutability": "nonpayable",
      "type": "function"
    },
    {
      "constant": false,
      "inputs": [
        {
          "name": "_bountyId",
          "type": "uint256"
        },
        {
          "name": "_text",
          "type": "string"
        }
      ],
      "name": "createBountySubmission",
      "outputs": [],
      "payable": false,
      "stateMutability": "nonpayable",
      "type": "function"
    },
    {
      "constant": true,
      "inputs": [
        {
          "name": "_bountyId",
          "type": "uint256"
        }
      ],
      "name": "retrieveSubmissionsIds",
      "outputs": [
        {
          "name": "_submissionIds",
          "type": "uint256[]"
        }
      ],
      "payable": false,
      "stateMutability": "view",
      "type": "function"
    },
    {
      "constant": true,
      "inputs": [
        {
          "name": "_submissionId",
          "type": "uint256"
        }
      ],
      "name": "retrieveSubmissionsTextandAddressFromIds",
      "outputs": [
        {
          "name": "_submissionText",
          "type": "string"
        },
        {
          "name": "_submittorAddress",
          "type": "address"
        }
      ],
      "payable": false,
      "stateMutability": "view",
      "type": "function"
    },
    {
      "constant": true,
      "inputs": [
        {
          "name": "ownerAddress",
          "type": "address"
        }
      ],
      "name": "getBountyByOwnerAddress",
      "outputs": [
        {
          "name": "",
          "type": "uint256[]"
        }
      ],
      "payable": false,
      "stateMutability": "view",
      "type": "function"
    },
    {
      "constant": true,
      "inputs": [
        {
          "name": "id",
          "type": "uint256"
        }
      ],
      "name": "getBountyById",
      "outputs": [
        {
          "name": "title",
          "type": "string"
        },
        {
          "name": "description",
          "type": "string"
        },
        {
          "name": "reward",
          "type": "uint256"
        },
        {
          "name": "ownerAddress",
          "type": "address"
        },
        {
          "name": "approved",
          "type": "bool"
        }
      ],
      "payable": false,
      "stateMutability": "view",
      "type": "function"
    },
    {
      "constant": false,
      "inputs": [
        {
          "name": "_bountyId",
          "type": "uint256"
        },
        {
          "name": "_submissionId",
          "type": "uint256"
        }
      ],
      "name": "approveAndTransfer",
      "outputs": [],
      "payable": true,
      "stateMutability": "payable",
      "type": "function"
    }
  ],
  "bytecode": "0x6080604052336000806101000a81548173ffffffffffffffffffffffffffffffffffffffff021916908373ffffffffffffffffffffffffffffffffffffffff1602179055506000809054906101000a900473ffffffffffffffffffffffffffffffffffffffff1673ffffffffffffffffffffffffffffffffffffffff16600073ffffffffffffffffffffffffffffffffffffffff167f8be0079c531659141344cd1fd0a4f28419497f9722a3daafe3b4186f6b6457e060405160405180910390a3611f11806100cf6000396000f3fe6080604052600436106100e6576000357c0100000000000000000000000000000000000000000000000000000000900463ffffffff1680631eab6fd3146100eb5780634d69316d1461015a578063575d4bfe1461024157806367a07bf5146102bc578063715018a6146103155780637a0cfe241461032c578063807ee746146103bc5780638da5cb5b146105315780638f32d59b14610588578063a739d4e8146105b7578063ac3d278b14610689578063ad73349e1461072f578063b2aced4f14610821578063dc2f874414610986578063e7da473d14610aeb578063f2fde38b14610b23575b600080fd5b3480156100f757600080fd5b506101446004803603604081101561010e57600080fd5b81019080803573ffffffffffffffffffffffffffffffffffffffff16906020019092919080359060200190929190505050610b74565b6040518082815260200191505060405180910390f35b34801561016657600080fd5b506101936004803603602081101561017d57600080fd5b8101908080359060200190929190505050610ba4565b60405180806020018373ffffffffffffffffffffffffffffffffffffffff1673ffffffffffffffffffffffffffffffffffffffff168152602001828103825284818151815260200191508051906020019080838360005b838110156102055780820151818401526020810190506101ea565b50505050905090810190601f1680156102325780820380516001836020036101000a031916815260200191505b50935050505060405180910390f35b34801561024d57600080fd5b5061027a6004803603602081101561026457600080fd5b8101908080359060200190929190505050610cb1565b604051808273ffffffffffffffffffffffffffffffffffffffff1673ffffffffffffffffffffffffffffffffffffffff16815260200191505060405180910390f35b3480156102c857600080fd5b506102ff600480360360408110156102df57600080fd5b810190808035906020019092919080359060200190929190505050610ce4565b6040518082815260200191505060405180910390f35b34801561032157600080fd5b5061032a610d14565b005b34801561033857600080fd5b506103656004803603602081101561034f57600080fd5b8101908080359060200190929190505050610de6565b6040518080602001828103825283818151815260200191508051906020019060200280838360005b838110156103a857808201518184015260208101905061038d565b505050509050019250505060405180910390f35b3480156103c857600080fd5b5061052f600480360360808110156103df57600080fd5b81019080803590602001906401000000008111156103fc57600080fd5b82018360208201111561040e57600080fd5b8035906020019184600183028401116401000000008311171561043057600080fd5b91908080601f016020809104026020016040519081016040528093929190818152602001838380828437600081840152601f19601f8201169050808301925050505050505091929192908035906020019064010000000081111561049357600080fd5b8201836020820111156104a557600080fd5b803590602001918460018302840111640100000000831117156104c757600080fd5b91908080601f016020809104026020016040519081016040528093929190818152602001838380828437600081840152601f19601f82011690508083019250505050505050919291929080359060200190929190803515159060200190929190505050610e51565b005b34801561053d57600080fd5b5061054661119e565b604051808273ffffffffffffffffffffffffffffffffffffffff1673ffffffffffffffffffffffffffffffffffffffff16815260200191505060405180910390f35b34801561059457600080fd5b5061059d6111c7565b604051808215151515815260200191505060405180910390f35b3480156105c357600080fd5b50610687600480360360408110156105da57600080fd5b81019080803590602001909291908035906020019064010000000081111561060157600080fd5b82018360208201111561061357600080fd5b8035906020019184600183028401116401000000008311171561063557600080fd5b91908080601f016020809104026020016040519081016040528093929190818152602001838380828437600081840152601f19601f82011690508083019250505050505050919291929050505061121e565b005b34801561069557600080fd5b506106d8600480360360208110156106ac57600080fd5b81019080803573ffffffffffffffffffffffffffffffffffffffff16906020019092919050505061142f565b6040518080602001828103825283818151815260200191508051906020019060200280838360005b8381101561071b578082015181840152602081019050610700565b505050509050019250505060405180910390f35b34801561073b57600080fd5b506107686004803603602081101561075257600080fd5b81019080803590602001909291905050506114c6565b6040518084151515158152602001806020018373ffffffffffffffffffffffffffffffffffffffff1673ffffffffffffffffffffffffffffffffffffffff168152602001828103825284818151815260200191508051906020019080838360005b838110156107e45780820151818401526020810190506107c9565b50505050905090810190601f1680156108115780820380516001836020036101000a031916815260200191505b5094505050505060405180910390f35b34801561082d57600080fd5b5061085a6004803603602081101561084457600080fd5b81019080803590602001909291905050506115c4565b6040518080602001806020018681526020018573ffffffffffffffffffffffffffffffffffffffff1673ffffffffffffffffffffffffffffffffffffffff16815260200184151515158152602001838103835288818151815260200191508051906020019080838360005b838110156108e05780820151818401526020810190506108c5565b50505050905090810190601f16801561090d5780820380516001836020036101000a031916815260200191505b50838103825287818151815260200191508051906020019080838360005b8381101561094657808201518184015260208101905061092b565b50505050905090810190601f1680156109735780820380516001836020036101000a031916815260200191505b5097505050505050505060405180910390f35b34801561099257600080fd5b506109bf600480360360208110156109a957600080fd5b81019080803590602001909291905050506117e7565b6040518080602001806020018681526020018573ffffffffffffffffffffffffffffffffffffffff1673ffffffffffffffffffffffffffffffffffffffff16815260200184151515158152602001838103835288818151815260200191508051906020019080838360005b83811015610a45578082015181840152602081019050610a2a565b50505050905090810190601f168015610a725780820380516001836020036101000a031916815260200191505b50838103825287818151815260200191508051906020019080838360005b83811015610aab578082015181840152602081019050610a90565b50505050905090810190601f168015610ad85780820380516001836020036101000a031916815260200191505b5097505050505050505060405180910390f35b610b2160048036036040811015610b0157600080fd5b810190808035906020019092919080359060200190929190505050611989565b005b348015610b2f57600080fd5b50610b7260048036036020811015610b4657600080fd5b81019080803573ffffffffffffffffffffffffffffffffffffffff169060200190929190505050611d27565b005b600460205281600052604060002081815481101515610b8f57fe5b90600052602060002001600091509150505481565b60606000600283815481101515610bb757fe5b9060005260206000209060030201600101600284815481101515610bd757fe5b906000526020600020906003020160020160009054906101000a900473ffffffffffffffffffffffffffffffffffffffff16818054600181600116156101000203166002900480601f016020809104026020016040519081016040528092919081815260200182805460018160011615610100020316600290048015610c9e5780601f10610c7357610100808354040283529160200191610c9e565b820191906000526020600020905b815481529060010190602001808311610c8157829003601f168201915b5050505050915080905091509150915091565b60036020528060005260406000206000915054906101000a900473ffffffffffffffffffffffffffffffffffffffff1681565b600560205281600052604060002081815481101515610cff57fe5b90600052602060002001600091509150505481565b610d1c6111c7565b1515610d2757600080fd5b600073ffffffffffffffffffffffffffffffffffffffff166000809054906101000a900473ffffffffffffffffffffffffffffffffffffffff1673ffffffffffffffffffffffffffffffffffffffff167f8be0079c531659141344cd1fd0a4f28419497f9722a3daafe3b4186f6b6457e060405160405180910390a360008060006101000a81548173ffffffffffffffffffffffffffffffffffffffff021916908373ffffffffffffffffffffffffffffffffffffffff160217905550565b606060056000838152602001908152602001600020805480602002602001604051908101604052809291908181526020018280548015610e4557602002820191906000526020600020905b815481526020019060010190808311610e31575b50505050509050919050565b8160008114151515610e6257600080fd5b600060018060a0604051908101604052808981526020018881526020018781526020013373ffffffffffffffffffffffffffffffffffffffff168152602001861515815250908060018154018082558091505090600182039060005260206000209060040201600090919290919091506000820151816000019080519060200190610eee929190611e40565b506020820151816001019080519060200190610f0b929190611e40565b506040820151816002015560608201518160030160006101000a81548173ffffffffffffffffffffffffffffffffffffffff021916908373ffffffffffffffffffffffffffffffffffffffff16021790555060808201518160030160146101000a81548160ff0219169083151502179055505050039050336003600083815260200190815260200160002060006101000a81548173ffffffffffffffffffffffffffffffffffffffff021916908373ffffffffffffffffffffffffffffffffffffffff160217905550600460003373ffffffffffffffffffffffffffffffffffffffff1673ffffffffffffffffffffffffffffffffffffffff1681526020019081526020016000208190806001815401808255809150509060018203906000526020600020016000909192909190915055507f8b0f9377bed348b575c2a647e459c30cb87b1765a22469c87031bbd3a33216348187878733886040518087815260200180602001806020018681526020018573ffffffffffffffffffffffffffffffffffffffff1673ffffffffffffffffffffffffffffffffffffffff16815260200184151515158152602001838103835288818151815260200191508051906020019080838360005b838110156110f05780820151818401526020810190506110d5565b50505050905090810190601f16801561111d5780820380516001836020036101000a031916815260200191505b50838103825287818151815260200191508051906020019080838360005b8381101561115657808201518184015260208101905061113b565b50505050905090810190601f1680156111835780820380516001836020036101000a031916815260200191505b509850505050505050505060405180910390a1505050505050565b60008060009054906101000a900473ffffffffffffffffffffffffffffffffffffffff16905090565b60008060009054906101000a900473ffffffffffffffffffffffffffffffffffffffff1673ffffffffffffffffffffffffffffffffffffffff163373ffffffffffffffffffffffffffffffffffffffff1614905090565b6000600160026060604051908101604052806000151581526020018581526020013373ffffffffffffffffffffffffffffffffffffffff168152509080600181540180825580915050906001820390600052602060002090600302016000909192909190915060008201518160000160006101000a81548160ff02191690831515021790555060208201518160010190805190602001906112c0929190611e40565b5060408201518160020160006101000a81548173ffffffffffffffffffffffffffffffffffffffff021916908373ffffffffffffffffffffffffffffffffffffffff1602179055505050039050600560008481526020019081526020016000208190806001815401808255809150509060018203906000526020600020016000909192909190915055507fc993ee94c23e25028e713602da05e5245e8e0ef61dce41c8550b77304b13116683338385604051808581526020018473ffffffffffffffffffffffffffffffffffffffff1673ffffffffffffffffffffffffffffffffffffffff16815260200183815260200180602001828103825283818151815260200191508051906020019080838360005b838110156113ed5780820151818401526020810190506113d2565b50505050905090810190601f16801561141a5780820380516001836020036101000a031916815260200191505b509550505050505060405180910390a1505050565b6060600460008373ffffffffffffffffffffffffffffffffffffffff1673ffffffffffffffffffffffffffffffffffffffff1681526020019081526020016000208054806020026020016040519081016040528092919081815260200182805480156114ba57602002820191906000526020600020905b8154815260200190600101908083116114a6575b50505050509050919050565b6002818154811015156114d557fe5b90600052602060002090600302016000915090508060000160009054906101000a900460ff1690806001018054600181600116156101000203166002900480601f0160208091040260200160405190810160405280929190818152602001828054600181600116156101000203166002900480156115945780601f1061156957610100808354040283529160200191611594565b820191906000526020600020905b81548152906001019060200180831161157757829003601f168201915b5050505050908060020160009054906101000a900473ffffffffffffffffffffffffffffffffffffffff16905083565b60608060008060006001868154811015156115db57fe5b90600052602060002090600402016000016001878154811015156115fb57fe5b906000526020600020906004020160010160018881548110151561161b57fe5b90600052602060002090600402016002015460018981548110151561163c57fe5b906000526020600020906004020160030160009054906101000a900473ffffffffffffffffffffffffffffffffffffffff1660018a81548110151561167d57fe5b906000526020600020906004020160030160149054906101000a900460ff16848054600181600116156101000203166002900480601f0160208091040260200160405190810160405280929190818152602001828054600181600116156101000203166002900480156117315780601f1061170657610100808354040283529160200191611731565b820191906000526020600020905b81548152906001019060200180831161171457829003601f168201915b50505050509450838054600181600116156101000203166002900480601f0160208091040260200160405190810160405280929190818152602001828054600181600116156101000203166002900480156117cd5780601f106117a2576101008083540402835291602001916117cd565b820191906000526020600020905b8154815290600101906020018083116117b057829003601f168201915b505050505093509450945094509450945091939590929450565b6001818154811015156117f657fe5b9060005260206000209060040201600091509050806000018054600181600116156101000203166002900480601f0160208091040260200160405190810160405280929190818152602001828054600181600116156101000203166002900480156118a25780601f10611877576101008083540402835291602001916118a2565b820191906000526020600020905b81548152906001019060200180831161188557829003601f168201915b505050505090806001018054600181600116156101000203166002900480601f0160208091040260200160405190810160405280929190818152602001828054600181600116156101000203166002900480156119405780601f1061191557610100808354040283529160200191611940565b820191906000526020600020905b81548152906001019060200180831161192357829003601f168201915b5050505050908060020154908060030160009054906101000a900473ffffffffffffffffffffffffffffffffffffffff16908060030160149054906101000a900460ff16905085565b8160018181548110151561199957fe5b9060005260206000209060040201600201546001828154811015156119ba57fe5b906000526020600020906004020160030160009054906101000a900473ffffffffffffffffffffffffffffffffffffffff1673ffffffffffffffffffffffffffffffffffffffff163110151515611a9f576040517f08c379a000000000000000000000000000000000000000000000000000000000815260040180806020018281038252602d8152602001807f4e6f7420656e6f7567682066756e6473206f6e2062616c616e636520746f207081526020017f617920746865207265776172640000000000000000000000000000000000000081525060400191505060405180910390fd5b82600181815481101515611aaf57fe5b906000526020600020906004020160030160009054906101000a900473ffffffffffffffffffffffffffffffffffffffff1673ffffffffffffffffffffffffffffffffffffffff163373ffffffffffffffffffffffffffffffffffffffff16141515611b1a57600080fd5b6001600284815481101515611b2b57fe5b906000526020600020906003020160000160006101000a81548160ff021916908315150217905550600283815481101515611b6257fe5b906000526020600020906003020160020160009054906101000a900473ffffffffffffffffffffffffffffffffffffffff1673ffffffffffffffffffffffffffffffffffffffff166108fc349081150290604051600060405180830381858888f19350505050158015611bd9573d6000803e3d6000fd5b507fa12c8077484505f7f2215f7a8b48429f0e50c833109a34d769fc2b2144f570a684600186815481101515611c0b57fe5b906000526020600020906004020160030160009054906101000a900473ffffffffffffffffffffffffffffffffffffffff16600286815481101515611c4c57fe5b906000526020600020906003020160020160009054906101000a900473ffffffffffffffffffffffffffffffffffffffff16600188815481101515611c8d57fe5b906000526020600020906004020160020154604051808581526020018473ffffffffffffffffffffffffffffffffffffffff1673ffffffffffffffffffffffffffffffffffffffff1681526020018373ffffffffffffffffffffffffffffffffffffffff1673ffffffffffffffffffffffffffffffffffffffff16815260200182815260200194505050505060405180910390a150505050565b611d2f6111c7565b1515611d3a57600080fd5b611d4381611d46565b50565b600073ffffffffffffffffffffffffffffffffffffffff168173ffffffffffffffffffffffffffffffffffffffff1614151515611d8257600080fd5b8073ffffffffffffffffffffffffffffffffffffffff166000809054906101000a900473ffffffffffffffffffffffffffffffffffffffff1673ffffffffffffffffffffffffffffffffffffffff167f8be0079c531659141344cd1fd0a4f28419497f9722a3daafe3b4186f6b6457e060405160405180910390a3806000806101000a81548173ffffffffffffffffffffffffffffffffffffffff021916908373ffffffffffffffffffffffffffffffffffffffff16021790555050565b828054600181600116156101000203166002900490600052602060002090601f016020900481019282601f10611e8157805160ff1916838001178555611eaf565b82800160010185558215611eaf579182015b82811115611eae578251825591602001919060010190611e93565b5b509050611ebc9190611ec0565b5090565b611ee291905b80821115611ede576000816000905550600101611ec6565b5090565b9056fea165627a7a723058202101f601bd39b9232e52c35c03546fbadff349789e072fd52bcfce0b2a8b27590029",
  "source": "pragma solidity ^0.5.0;\n\n//import Ownable contract from openzeppelin-solidity for basic authorization control\nimport 'openzeppelin-solidity/contracts/ownership/Ownable.sol';\n\ncontract BountyMarket is Ownable {\n\n  event BountyCreated(uint _id, string _title, string _description, uint _reward, address _ownerAddress, bool _approved);\n  event SubmissionCreated(uint _bountyId, address submittorAddress, uint submissionId, string _text);\n  event SubmissionApprovedTransferred(uint _bountyId, address _ownerAddress, address _submittorAddress, uint reward);\n\n  /* address payable public owner; */\n\n  /* constructor() public {\n    owner = msg.sender;\n  } */\n\n  modifier valueNotZero(uint _value) {\n    require(_value != 0);\n    _;\n  }\n\n  modifier checkRewardDeposit(uint _bountyId) {\n      require(bounties[_bountyId].ownerAddress.balance >= bounties[_bountyId].reward, 'Not enough funds on balance to pay the reward');\n      _;\n  }\n\n  modifier onlyBountyOwner(uint _bountyId) {\n    require(msg.sender == bounties[_bountyId].ownerAddress);\n    _;\n  }\n\n  struct Bounty {\n    string title;\n    string description;\n    uint reward;\n    address ownerAddress;\n    bool approved;\n  }\n\n  struct Submission {\n    bool approved;\n    string text;\n    address payable submittorAddress;\n  }\n\n  Bounty[] public bounties;\n  Submission[] public submissions;\n  mapping (uint => address) public bountyToOwner;\n  mapping (address => uint[]) public ownerToBounty;\n  mapping (uint => uint[]) public bountyIdToSubmissionIds;\n\n  function createBounty(string memory _title, string memory _description, uint _reward, bool _approved) public valueNotZero(_reward) {\n    uint id = bounties.push(Bounty(_title, _description, _reward, msg.sender, _approved)) -1;\n    bountyToOwner[id] = msg.sender;\n    ownerToBounty[msg.sender].push(id);\n    emit BountyCreated(id, _title, _description, _reward, msg.sender, _approved);\n  }\n\n  function createBountySubmission(uint _bountyId, string memory _text) public {\n    uint submissionId = submissions.push(Submission(false, _text, msg.sender)) -1;\n    bountyIdToSubmissionIds[_bountyId].push(submissionId);\n    emit SubmissionCreated(_bountyId, msg.sender, submissionId, _text);\n  }\n\n  function retrieveSubmissionsIds(uint _bountyId) external view returns (uint[] memory _submissionIds) {\n    return bountyIdToSubmissionIds[_bountyId];\n  }\n\n  function retrieveSubmissionsTextandAddressFromIds(uint _submissionId) external view returns (string memory _submissionText, address _submittorAddress) {\n    return (submissions[_submissionId].text, submissions[_submissionId].submittorAddress);\n  }\n\n  function getBountyByOwnerAddress(address ownerAddress) external view returns(uint[] memory) {\n    return ownerToBounty[ownerAddress];\n  }\n\n  function getBountyById(uint id) external view returns(string memory title, string memory description, uint reward, address ownerAddress, bool approved) {\n    return (bounties[id].title, bounties[id].description, bounties[id].reward, bounties[id].ownerAddress, bounties[id].approved);\n  }\n\n  function approveAndTransfer(uint _bountyId, uint _submissionId) payable public checkRewardDeposit(_bountyId) onlyBountyOwner(_bountyId)\n\n {\n    submissions[_submissionId].approved = true;\n    submissions[_submissionId].submittorAddress.transfer(msg.value);\n    emit SubmissionApprovedTransferred(_bountyId, bounties[_bountyId].ownerAddress, submissions[_submissionId].submittorAddress, bounties[_bountyId].reward);\n  }\n}\n",
  "sourcePath": "/Users/JessicaNgo/Desktop/DevAcademy/reactBounty/contracts/BountyMarket.sol",
  "compiler": {
    "name": "solc",
    "version": "0.5.0+commit.1d4f565a.Emscripten.clang"
  },
  "schemaVersion": "3.0.1",
  "updatedAt": "2019-01-27T10:43:19.317Z",
  "devdoc": {
    "methods": {
      "isOwner()": {
        "return": "true if `msg.sender` is the owner of the contract."
      },
      "owner()": {
        "return": "the address of the owner."
      },
      "renounceOwnership()": {
        "details": "Allows the current owner to relinquish control of the contract."
      },
      "transferOwnership(address)": {
        "details": "Allows the current owner to transfer control of the contract to a newOwner.",
        "params": {
          "newOwner": "The address to transfer ownership to."
        }
      }
    }
  },
  "userdoc": {
    "methods": {
      "renounceOwnership()": {
        "notice": "Renouncing to ownership will leave the contract without an owner. It will not be possible to call the functions with the `onlyOwner` modifier anymore."
      }
    }
  }
}