{
  "contractName": "BountyMarket",
  "abi": [
    {
      "constant": true,
      "inputs": [
        {
          "name": "",
          "type": "address"
        },
        {
          "name": "",
          "type": "uint256"
        }
      ],
      "name": "ownerToBounty",
      "outputs": [
        {
          "name": "",
          "type": "uint256"
        }
      ],
      "payable": false,
      "stateMutability": "view",
      "type": "function",
      "signature": "0x1eab6fd3"
    },
    {
      "constant": true,
      "inputs": [
        {
          "name": "",
          "type": "uint256"
        }
      ],
      "name": "bountyToOwner",
      "outputs": [
        {
          "name": "",
          "type": "address"
        }
      ],
      "payable": false,
      "stateMutability": "view",
      "type": "function",
      "signature": "0x575d4bfe"
    },
    {
      "constant": true,
      "inputs": [
        {
          "name": "",
          "type": "uint256"
        }
      ],
      "name": "bounties",
      "outputs": [
        {
          "name": "title",
          "type": "string"
        },
        {
          "name": "description",
          "type": "string"
        },
        {
          "name": "price",
          "type": "uint256"
        },
        {
          "name": "owner",
          "type": "address"
        },
        {
          "name": "accepted",
          "type": "bool"
        }
      ],
      "payable": false,
      "stateMutability": "view",
      "type": "function",
      "signature": "0xdc2f8744"
    },
    {
      "anonymous": false,
      "inputs": [
        {
          "indexed": false,
          "name": "_id",
          "type": "uint256"
        },
        {
          "indexed": false,
          "name": "_title",
          "type": "string"
        },
        {
          "indexed": false,
          "name": "_description",
          "type": "string"
        },
        {
          "indexed": false,
          "name": "_price",
          "type": "uint256"
        },
        {
          "indexed": false,
          "name": "_owner",
          "type": "address"
        },
        {
          "indexed": false,
          "name": "_accepted",
          "type": "bool"
        }
      ],
      "name": "BountyCreated",
      "type": "event",
      "signature": "0x8b0f9377bed348b575c2a647e459c30cb87b1765a22469c87031bbd3a3321634"
    },
    {
      "constant": false,
      "inputs": [
        {
          "name": "_title",
          "type": "string"
        },
        {
          "name": "_description",
          "type": "string"
        },
        {
          "name": "_price",
          "type": "uint256"
        },
        {
          "name": "_accepted",
          "type": "bool"
        }
      ],
      "name": "createBounty",
      "outputs": [],
      "payable": false,
      "stateMutability": "nonpayable",
      "type": "function",
      "signature": "0x807ee746"
    },
    {
      "constant": true,
      "inputs": [
        {
          "name": "ownerAddress",
          "type": "address"
        }
      ],
      "name": "getBountyByOwnerAddress",
      "outputs": [
        {
          "name": "ids",
          "type": "uint256[]"
        }
      ],
      "payable": false,
      "stateMutability": "view",
      "type": "function",
      "signature": "0xac3d278b"
    }
  ],
  "bytecode": "0x608060405234801561001057600080fd5b50610b1c806100206000396000f3fe60806040526004361061006d576000357c0100000000000000000000000000000000000000000000000000000000900463ffffffff1680631eab6fd314610072578063575d4bfe146100e1578063807ee7461461015c578063ac3d278b146102d1578063dc2f874414610377575b600080fd5b34801561007e57600080fd5b506100cb6004803603604081101561009557600080fd5b81019080803573ffffffffffffffffffffffffffffffffffffffff169060200190929190803590602001909291905050506104dc565b6040518082815260200191505060405180910390f35b3480156100ed57600080fd5b5061011a6004803603602081101561010457600080fd5b810190808035906020019092919050505061050c565b604051808273ffffffffffffffffffffffffffffffffffffffff1673ffffffffffffffffffffffffffffffffffffffff16815260200191505060405180910390f35b34801561016857600080fd5b506102cf6004803603608081101561017f57600080fd5b810190808035906020019064010000000081111561019c57600080fd5b8201836020820111156101ae57600080fd5b803590602001918460018302840111640100000000831117156101d057600080fd5b91908080601f016020809104026020016040519081016040528093929190818152602001838380828437600081840152601f19601f8201169050808301925050505050505091929192908035906020019064010000000081111561023357600080fd5b82018360208201111561024557600080fd5b8035906020019184600183028401116401000000008311171561026757600080fd5b91908080601f016020809104026020016040519081016040528093929190818152602001838380828437600081840152601f19601f8201169050808301925050505050505091929192908035906020019092919080351515906020019092919050505061053f565b005b3480156102dd57600080fd5b50610320600480360360208110156102f457600080fd5b81019080803573ffffffffffffffffffffffffffffffffffffffff169060200190929190505050610812565b6040518080602001828103825283818151815260200191508051906020019060200280838360005b83811015610363578082015181840152602081019050610348565b505050509050019250505060405180910390f35b34801561038357600080fd5b506103b06004803603602081101561039a57600080fd5b81019080803590602001909291905050506108a9565b6040518080602001806020018681526020018573ffffffffffffffffffffffffffffffffffffffff1673ffffffffffffffffffffffffffffffffffffffff16815260200184151515158152602001838103835288818151815260200191508051906020019080838360005b8381101561043657808201518184015260208101905061041b565b50505050905090810190601f1680156104635780820380516001836020036101000a031916815260200191505b50838103825287818151815260200191508051906020019080838360005b8381101561049c578082015181840152602081019050610481565b50505050905090810190601f1680156104c95780820380516001836020036101000a031916815260200191505b5097505050505050505060405180910390f35b6002602052816000526040600020818154811015156104f757fe5b90600052602060002001600091509150505481565b60016020528060005260406000206000915054906101000a900473ffffffffffffffffffffffffffffffffffffffff1681565b60006001600060a0604051908101604052808881526020018781526020018681526020013373ffffffffffffffffffffffffffffffffffffffff1681526020018515158152509080600181540180825580915050906001820390600052602060002090600402016000909192909190915060008201518160000190805190602001906105cc929190610a4b565b5060208201518160010190805190602001906105e9929190610a4b565b506040820151816002015560608201518160030160006101000a81548173ffffffffffffffffffffffffffffffffffffffff021916908373ffffffffffffffffffffffffffffffffffffffff16021790555060808201518160030160146101000a81548160ff0219169083151502179055505050039050336001600083815260200190815260200160002060006101000a81548173ffffffffffffffffffffffffffffffffffffffff021916908373ffffffffffffffffffffffffffffffffffffffff1602179055507f8b0f9377bed348b575c2a647e459c30cb87b1765a22469c87031bbd3a33216348186868633876040518087815260200180602001806020018681526020018573ffffffffffffffffffffffffffffffffffffffff1673ffffffffffffffffffffffffffffffffffffffff16815260200184151515158152602001838103835288818151815260200191508051906020019080838360005b8381101561076557808201518184015260208101905061074a565b50505050905090810190601f1680156107925780820380516001836020036101000a031916815260200191505b50838103825287818151815260200191508051906020019080838360005b838110156107cb5780820151818401526020810190506107b0565b50505050905090810190601f1680156107f85780820380516001836020036101000a031916815260200191505b509850505050505050505060405180910390a15050505050565b6060600260008373ffffffffffffffffffffffffffffffffffffffff1673ffffffffffffffffffffffffffffffffffffffff16815260200190815260200160002080548060200260200160405190810160405280929190818152602001828054801561089d57602002820191906000526020600020905b815481526020019060010190808311610889575b50505050509050919050565b6000818154811015156108b857fe5b9060005260206000209060040201600091509050806000018054600181600116156101000203166002900480601f0160208091040260200160405190810160405280929190818152602001828054600181600116156101000203166002900480156109645780601f1061093957610100808354040283529160200191610964565b820191906000526020600020905b81548152906001019060200180831161094757829003601f168201915b505050505090806001018054600181600116156101000203166002900480601f016020809104026020016040519081016040528092919081815260200182805460018160011615610100020316600290048015610a025780601f106109d757610100808354040283529160200191610a02565b820191906000526020600020905b8154815290600101906020018083116109e557829003601f168201915b5050505050908060020154908060030160009054906101000a900473ffffffffffffffffffffffffffffffffffffffff16908060030160149054906101000a900460ff16905085565b828054600181600116156101000203166002900490600052602060002090601f016020900481019282601f10610a8c57805160ff1916838001178555610aba565b82800160010185558215610aba579182015b82811115610ab9578251825591602001919060010190610a9e565b5b509050610ac79190610acb565b5090565b610aed91905b80821115610ae9576000816000905550600101610ad1565b5090565b9056fea165627a7a72305820538648eb9b513d80019149373c65521e063b1b8940be135ae9237371bc7e26870029",
  "source": "pragma solidity ^0.5.0;\n\ncontract BountyMarket {\n\n  event BountyCreated(uint _id, string _title, string _description, uint _price, address _owner, bool _accepted);\n\n  struct Bounty {\n    string title;\n    string description;\n    uint price;\n    address owner;\n    bool accepted;\n  }\n\n  Bounty[] public bounties;\n  mapping (uint => address) public bountyToOwner;\n  mapping (address => uint[]) public ownerToBounty;\n\n  function createBounty(string memory _title, string memory _description, uint _price, bool _accepted) public {\n    uint id = bounties.push(Bounty(_title, _description, _price, msg.sender, _accepted)) -1;\n    bountyToOwner[id] = msg.sender;\n    emit BountyCreated(id, _title, _description, _price, msg.sender, _accepted);\n  }\n\n  function getBountyByOwnerAddress(address ownerAddress) external view returns(uint[] memory ids) {\n    return ownerToBounty[ownerAddress];\n  }\n}\n",
  "sourcePath": "/Users/JessicaNgo/Desktop/DevAcademy/reactBounty/contracts/BountyMarket.sol",
  "compiler": {
    "name": "solc",
    "version": "0.5.0+commit.1d4f565a.Emscripten.clang"
  },
  "schemaVersion": "3.0.1",
  "updatedAt": "2019-01-22T10:52:01.338Z",
  "devdoc": {
    "methods": {}
  },
  "userdoc": {
    "methods": {}
  }
}