{
  "contractName": "BountyMarket",
  "abi": [
    {
      "constant": true,
      "inputs": [
        {
          "name": "",
          "type": "address"
        },
        {
          "name": "",
          "type": "uint256"
        }
      ],
      "name": "ownerToBounty",
      "outputs": [
        {
          "name": "",
          "type": "uint256"
        }
      ],
      "payable": false,
      "stateMutability": "view",
      "type": "function",
      "signature": "0x1eab6fd3"
    },
    {
      "constant": true,
      "inputs": [
        {
          "name": "",
          "type": "uint256"
        }
      ],
      "name": "bountyToOwner",
      "outputs": [
        {
          "name": "",
          "type": "address"
        }
      ],
      "payable": false,
      "stateMutability": "view",
      "type": "function",
      "signature": "0x575d4bfe"
    },
    {
      "constant": true,
      "inputs": [
        {
          "name": "",
          "type": "uint256"
        },
        {
          "name": "",
          "type": "uint256"
        }
      ],
      "name": "bountyIdToSubmissionIds",
      "outputs": [
        {
          "name": "",
          "type": "uint256"
        }
      ],
      "payable": false,
      "stateMutability": "view",
      "type": "function",
      "signature": "0x67a07bf5"
    },
    {
      "constant": true,
      "inputs": [
        {
          "name": "",
          "type": "uint256"
        }
      ],
      "name": "submissions",
      "outputs": [
        {
          "name": "accepted",
          "type": "bool"
        },
        {
          "name": "text",
          "type": "string"
        },
        {
          "name": "submittorAddress",
          "type": "address"
        }
      ],
      "payable": false,
      "stateMutability": "view",
      "type": "function",
      "signature": "0xad73349e"
    },
    {
      "constant": true,
      "inputs": [
        {
          "name": "",
          "type": "uint256"
        }
      ],
      "name": "bounties",
      "outputs": [
        {
          "name": "title",
          "type": "string"
        },
        {
          "name": "description",
          "type": "string"
        },
        {
          "name": "price",
          "type": "uint256"
        },
        {
          "name": "ownerAddress",
          "type": "address"
        },
        {
          "name": "accepted",
          "type": "bool"
        }
      ],
      "payable": false,
      "stateMutability": "view",
      "type": "function",
      "signature": "0xdc2f8744"
    },
    {
      "anonymous": false,
      "inputs": [
        {
          "indexed": false,
          "name": "_id",
          "type": "uint256"
        },
        {
          "indexed": false,
          "name": "_title",
          "type": "string"
        },
        {
          "indexed": false,
          "name": "_description",
          "type": "string"
        },
        {
          "indexed": false,
          "name": "_price",
          "type": "uint256"
        },
        {
          "indexed": false,
          "name": "_ownerAddress",
          "type": "address"
        },
        {
          "indexed": false,
          "name": "_accepted",
          "type": "bool"
        }
      ],
      "name": "BountyCreated",
      "type": "event",
      "signature": "0x8b0f9377bed348b575c2a647e459c30cb87b1765a22469c87031bbd3a3321634"
    },
    {
      "anonymous": false,
      "inputs": [
        {
          "indexed": false,
          "name": "_bountyId",
          "type": "uint256"
        },
        {
          "indexed": false,
          "name": "submittorAddress",
          "type": "address"
        },
        {
          "indexed": false,
          "name": "submissionId",
          "type": "uint256"
        },
        {
          "indexed": false,
          "name": "_text",
          "type": "string"
        }
      ],
      "name": "SubmissionCreated",
      "type": "event",
      "signature": "0xc993ee94c23e25028e713602da05e5245e8e0ef61dce41c8550b77304b131166"
    },
    {
      "constant": false,
      "inputs": [
        {
          "name": "_title",
          "type": "string"
        },
        {
          "name": "_description",
          "type": "string"
        },
        {
          "name": "_price",
          "type": "uint256"
        },
        {
          "name": "_accepted",
          "type": "bool"
        }
      ],
      "name": "createBounty",
      "outputs": [],
      "payable": false,
      "stateMutability": "nonpayable",
      "type": "function",
      "signature": "0x807ee746"
    },
    {
      "constant": false,
      "inputs": [
        {
          "name": "_bountyId",
          "type": "uint256"
        },
        {
          "name": "_text",
          "type": "string"
        }
      ],
      "name": "createBountySubmission",
      "outputs": [],
      "payable": false,
      "stateMutability": "nonpayable",
      "type": "function",
      "signature": "0xa739d4e8"
    },
    {
      "constant": true,
      "inputs": [
        {
          "name": "_bountyId",
          "type": "uint256"
        }
      ],
      "name": "retrieveSubmissionsIds",
      "outputs": [
        {
          "name": "_submissionIds",
          "type": "uint256[]"
        }
      ],
      "payable": false,
      "stateMutability": "view",
      "type": "function",
      "signature": "0x7a0cfe24"
    },
    {
      "constant": true,
      "inputs": [
        {
          "name": "ownerAddress",
          "type": "address"
        }
      ],
      "name": "getBountyByOwnerAddress",
      "outputs": [
        {
          "name": "",
          "type": "uint256[]"
        }
      ],
      "payable": false,
      "stateMutability": "view",
      "type": "function",
      "signature": "0xac3d278b"
    },
    {
      "constant": true,
      "inputs": [
        {
          "name": "id",
          "type": "uint256"
        }
      ],
      "name": "getBountyById",
      "outputs": [
        {
          "name": "title",
          "type": "string"
        },
        {
          "name": "description",
          "type": "string"
        },
        {
          "name": "price",
          "type": "uint256"
        },
        {
          "name": "ownerAddress",
          "type": "address"
        },
        {
          "name": "accepted",
          "type": "bool"
        }
      ],
      "payable": false,
      "stateMutability": "view",
      "type": "function",
      "signature": "0xb2aced4f"
    }
  ],
  "bytecode": "0x608060405234801561001057600080fd5b50611599806100206000396000f3fe6080604052600436106100a4576000357c0100000000000000000000000000000000000000000000000000000000900463ffffffff1680631eab6fd3146100a9578063575d4bfe1461011857806367a07bf5146101935780637a0cfe24146101ec578063807ee7461461027c578063a739d4e8146103f1578063ac3d278b146104c3578063ad73349e14610569578063b2aced4f1461065b578063dc2f8744146107c0575b600080fd5b3480156100b557600080fd5b50610102600480360360408110156100cc57600080fd5b81019080803573ffffffffffffffffffffffffffffffffffffffff16906020019092919080359060200190929190505050610925565b6040518082815260200191505060405180910390f35b34801561012457600080fd5b506101516004803603602081101561013b57600080fd5b8101908080359060200190929190505050610955565b604051808273ffffffffffffffffffffffffffffffffffffffff1673ffffffffffffffffffffffffffffffffffffffff16815260200191505060405180910390f35b34801561019f57600080fd5b506101d6600480360360408110156101b657600080fd5b810190808035906020019092919080359060200190929190505050610988565b6040518082815260200191505060405180910390f35b3480156101f857600080fd5b506102256004803603602081101561020f57600080fd5b81019080803590602001909291905050506109b8565b6040518080602001828103825283818151815260200191508051906020019060200280838360005b8381101561026857808201518184015260208101905061024d565b505050509050019250505060405180910390f35b34801561028857600080fd5b506103ef6004803603608081101561029f57600080fd5b81019080803590602001906401000000008111156102bc57600080fd5b8201836020820111156102ce57600080fd5b803590602001918460018302840111640100000000831117156102f057600080fd5b91908080601f016020809104026020016040519081016040528093929190818152602001838380828437600081840152601f19601f8201169050808301925050505050505091929192908035906020019064010000000081111561035357600080fd5b82018360208201111561036557600080fd5b8035906020019184600183028401116401000000008311171561038757600080fd5b91908080601f016020809104026020016040519081016040528093929190818152602001838380828437600081840152601f19601f82011690508083019250505050505050919291929080359060200190929190803515159060200190929190505050610a23565b005b3480156103fd57600080fd5b506104c16004803603604081101561041457600080fd5b81019080803590602001909291908035906020019064010000000081111561043b57600080fd5b82018360208201111561044d57600080fd5b8035906020019184600183028401116401000000008311171561046f57600080fd5b91908080601f016020809104026020016040519081016040528093929190818152602001838380828437600081840152601f19601f820116905080830192505050505050509192919290505050610d5f565b005b3480156104cf57600080fd5b50610512600480360360208110156104e657600080fd5b81019080803573ffffffffffffffffffffffffffffffffffffffff169060200190929190505050610f6f565b6040518080602001828103825283818151815260200191508051906020019060200280838360005b8381101561055557808201518184015260208101905061053a565b505050509050019250505060405180910390f35b34801561057557600080fd5b506105a26004803603602081101561058c57600080fd5b8101908080359060200190929190505050611006565b6040518084151515158152602001806020018373ffffffffffffffffffffffffffffffffffffffff1673ffffffffffffffffffffffffffffffffffffffff168152602001828103825284818151815260200191508051906020019080838360005b8381101561061e578082015181840152602081019050610603565b50505050905090810190601f16801561064b5780820380516001836020036101000a031916815260200191505b5094505050505060405180910390f35b34801561066757600080fd5b506106946004803603602081101561067e57600080fd5b8101908080359060200190929190505050611104565b6040518080602001806020018681526020018573ffffffffffffffffffffffffffffffffffffffff1673ffffffffffffffffffffffffffffffffffffffff16815260200184151515158152602001838103835288818151815260200191508051906020019080838360005b8381101561071a5780820151818401526020810190506106ff565b50505050905090810190601f1680156107475780820380516001836020036101000a031916815260200191505b50838103825287818151815260200191508051906020019080838360005b83811015610780578082015181840152602081019050610765565b50505050905090810190601f1680156107ad5780820380516001836020036101000a031916815260200191505b5097505050505050505060405180910390f35b3480156107cc57600080fd5b506107f9600480360360208110156107e357600080fd5b8101908080359060200190929190505050611326565b6040518080602001806020018681526020018573ffffffffffffffffffffffffffffffffffffffff1673ffffffffffffffffffffffffffffffffffffffff16815260200184151515158152602001838103835288818151815260200191508051906020019080838360005b8381101561087f578082015181840152602081019050610864565b50505050905090810190601f1680156108ac5780820380516001836020036101000a031916815260200191505b50838103825287818151815260200191508051906020019080838360005b838110156108e55780820151818401526020810190506108ca565b50505050905090810190601f1680156109125780820380516001836020036101000a031916815260200191505b5097505050505050505060405180910390f35b60036020528160005260406000208181548110151561094057fe5b90600052602060002001600091509150505481565b60026020528060005260406000206000915054906101000a900473ffffffffffffffffffffffffffffffffffffffff1681565b6004602052816000526040600020818154811015156109a357fe5b90600052602060002001600091509150505481565b606060046000838152602001908152602001600020805480602002602001604051908101604052809291908181526020018280548015610a1757602002820191906000526020600020905b815481526020019060010190808311610a03575b50505050509050919050565b60006001600060a0604051908101604052808881526020018781526020018681526020013373ffffffffffffffffffffffffffffffffffffffff168152602001851515815250908060018154018082558091505090600182039060005260206000209060040201600090919290919091506000820151816000019080519060200190610ab09291906114c8565b506020820151816001019080519060200190610acd9291906114c8565b506040820151816002015560608201518160030160006101000a81548173ffffffffffffffffffffffffffffffffffffffff021916908373ffffffffffffffffffffffffffffffffffffffff16021790555060808201518160030160146101000a81548160ff0219169083151502179055505050039050336002600083815260200190815260200160002060006101000a81548173ffffffffffffffffffffffffffffffffffffffff021916908373ffffffffffffffffffffffffffffffffffffffff160217905550600360003373ffffffffffffffffffffffffffffffffffffffff1673ffffffffffffffffffffffffffffffffffffffff1681526020019081526020016000208190806001815401808255809150509060018203906000526020600020016000909192909190915055507f8b0f9377bed348b575c2a647e459c30cb87b1765a22469c87031bbd3a33216348186868633876040518087815260200180602001806020018681526020018573ffffffffffffffffffffffffffffffffffffffff1673ffffffffffffffffffffffffffffffffffffffff16815260200184151515158152602001838103835288818151815260200191508051906020019080838360005b83811015610cb2578082015181840152602081019050610c97565b50505050905090810190601f168015610cdf5780820380516001836020036101000a031916815260200191505b50838103825287818151815260200191508051906020019080838360005b83811015610d18578082015181840152602081019050610cfd565b50505050905090810190601f168015610d455780820380516001836020036101000a031916815260200191505b509850505050505050505060405180910390a15050505050565b60006001806060604051908101604052806000151581526020018581526020013373ffffffffffffffffffffffffffffffffffffffff168152509080600181540180825580915050906001820390600052602060002090600302016000909192909190915060008201518160000160006101000a81548160ff0219169083151502179055506020820151816001019080519060200190610e009291906114c8565b5060408201518160020160006101000a81548173ffffffffffffffffffffffffffffffffffffffff021916908373ffffffffffffffffffffffffffffffffffffffff1602179055505050039050600460008481526020019081526020016000208190806001815401808255809150509060018203906000526020600020016000909192909190915055507fc993ee94c23e25028e713602da05e5245e8e0ef61dce41c8550b77304b13116683338385604051808581526020018473ffffffffffffffffffffffffffffffffffffffff1673ffffffffffffffffffffffffffffffffffffffff16815260200183815260200180602001828103825283818151815260200191508051906020019080838360005b83811015610f2d578082015181840152602081019050610f12565b50505050905090810190601f168015610f5a5780820380516001836020036101000a031916815260200191505b509550505050505060405180910390a1505050565b6060600360008373ffffffffffffffffffffffffffffffffffffffff1673ffffffffffffffffffffffffffffffffffffffff168152602001908152602001600020805480602002602001604051908101604052809291908181526020018280548015610ffa57602002820191906000526020600020905b815481526020019060010190808311610fe6575b50505050509050919050565b60018181548110151561101557fe5b90600052602060002090600302016000915090508060000160009054906101000a900460ff1690806001018054600181600116156101000203166002900480601f0160208091040260200160405190810160405280929190818152602001828054600181600116156101000203166002900480156110d45780601f106110a9576101008083540402835291602001916110d4565b820191906000526020600020905b8154815290600101906020018083116110b757829003601f168201915b5050505050908060020160009054906101000a900473ffffffffffffffffffffffffffffffffffffffff16905083565b6060806000806000808681548110151561111a57fe5b906000526020600020906004020160000160008781548110151561113a57fe5b906000526020600020906004020160010160008881548110151561115a57fe5b90600052602060002090600402016002015460008981548110151561117b57fe5b906000526020600020906004020160030160009054906101000a900473ffffffffffffffffffffffffffffffffffffffff1660008a8154811015156111bc57fe5b906000526020600020906004020160030160149054906101000a900460ff16848054600181600116156101000203166002900480601f0160208091040260200160405190810160405280929190818152602001828054600181600116156101000203166002900480156112705780601f1061124557610100808354040283529160200191611270565b820191906000526020600020905b81548152906001019060200180831161125357829003601f168201915b50505050509450838054600181600116156101000203166002900480601f01602080910402602001604051908101604052809291908181526020018280546001816001161561010002031660029004801561130c5780601f106112e15761010080835404028352916020019161130c565b820191906000526020600020905b8154815290600101906020018083116112ef57829003601f168201915b505050505093509450945094509450945091939590929450565b60008181548110151561133557fe5b9060005260206000209060040201600091509050806000018054600181600116156101000203166002900480601f0160208091040260200160405190810160405280929190818152602001828054600181600116156101000203166002900480156113e15780601f106113b6576101008083540402835291602001916113e1565b820191906000526020600020905b8154815290600101906020018083116113c457829003601f168201915b505050505090806001018054600181600116156101000203166002900480601f01602080910402602001604051908101604052809291908181526020018280546001816001161561010002031660029004801561147f5780601f106114545761010080835404028352916020019161147f565b820191906000526020600020905b81548152906001019060200180831161146257829003601f168201915b5050505050908060020154908060030160009054906101000a900473ffffffffffffffffffffffffffffffffffffffff16908060030160149054906101000a900460ff16905085565b828054600181600116156101000203166002900490600052602060002090601f016020900481019282601f1061150957805160ff1916838001178555611537565b82800160010185558215611537579182015b8281111561153657825182559160200191906001019061151b565b5b5090506115449190611548565b5090565b61156a91905b8082111561156657600081600090555060010161154e565b5090565b9056fea165627a7a72305820e90687e4881123349f7eb644aa1b3152638b5faea59e17697a27ad029b2757bc0029",
  "source": "pragma solidity ^0.5.0;\n\ncontract BountyMarket {\n\n  event BountyCreated(uint _id, string _title, string _description, uint _price, address _ownerAddress, bool _accepted);\n\n  event SubmissionCreated(uint _bountyId, address submittorAddress, uint submissionId, string _text);\n\n  struct Bounty {\n    string title;\n    string description;\n    uint price;\n    address ownerAddress;\n    bool accepted;\n  }\n\n  struct Submission {\n    bool accepted;\n    string text;\n    address submittorAddress;\n  }\n\n  Bounty[] public bounties;\n  Submission[] public submissions;\n  mapping (uint => address) public bountyToOwner;\n  mapping (address => uint[]) public ownerToBounty;\n  mapping (uint => uint[]) public bountyIdToSubmissionIds;\n\n  function createBounty(string memory _title, string memory _description, uint _price, bool _accepted) public {\n    uint id = bounties.push(Bounty(_title, _description, _price, msg.sender, _accepted)) -1;\n    bountyToOwner[id] = msg.sender;\n    ownerToBounty[msg.sender].push(id);\n    emit BountyCreated(id, _title, _description, _price, msg.sender, _accepted);\n  }\n\n  function createBountySubmission(uint _bountyId, string memory _text) public {\n    uint submissionId = submissions.push(Submission(false, _text, msg.sender)) -1;\n    bountyIdToSubmissionIds[_bountyId].push(submissionId);\n    emit SubmissionCreated(_bountyId, msg.sender, submissionId, _text);\n  }\n\n  function retrieveSubmissionsIds(uint _bountyId) external view returns (uint[] memory _submissionIds) {\n    return bountyIdToSubmissionIds[_bountyId];\n  }\n\n  function getBountyByOwnerAddress(address ownerAddress) external view returns(uint[] memory) {\n    return ownerToBounty[ownerAddress];\n  }\n\n  function getBountyById(uint id) external view returns(string memory title, string memory description, uint price, address ownerAddress, bool accepted) {\n    return (bounties[id].title, bounties[id].description, bounties[id].price, bounties[id].ownerAddress, bounties[id].accepted);\n  }\n}\n",
  "sourcePath": "/Users/JessicaNgo/Desktop/DevAcademy/reactBounty/contracts/BountyMarket.sol",
  "compiler": {
    "name": "solc",
    "version": "0.5.0+commit.1d4f565a.Emscripten.clang"
  },
  "schemaVersion": "3.0.1",
  "updatedAt": "2019-01-24T05:13:58.442Z",
  "devdoc": {
    "methods": {}
  },
  "userdoc": {
    "methods": {}
  }
}